{
  "_format": "hh-sol-artifact-1",
  "contractName": "NFT",
  "sourceName": "contracts/NFT.sol",
  "abi": [
    {
      "inputs": [],
      "stateMutability": "nonpayable",
      "type": "constructor"
    },
    {
      "anonymous": false,
      "inputs": [
        {
          "indexed": true,
          "internalType": "address",
          "name": "owner",
          "type": "address"
        },
        {
          "indexed": true,
          "internalType": "address",
          "name": "approved",
          "type": "address"
        },
        {
          "indexed": true,
          "internalType": "uint256",
          "name": "tokenId",
          "type": "uint256"
        }
      ],
      "name": "Approval",
      "type": "event"
    },
    {
      "anonymous": false,
      "inputs": [
        {
          "indexed": true,
          "internalType": "address",
          "name": "owner",
          "type": "address"
        },
        {
          "indexed": true,
          "internalType": "address",
          "name": "operator",
          "type": "address"
        },
        {
          "indexed": false,
          "internalType": "bool",
          "name": "approved",
          "type": "bool"
        }
      ],
      "name": "ApprovalForAll",
      "type": "event"
    },
    {
      "anonymous": false,
      "inputs": [
        {
          "indexed": true,
          "internalType": "address",
          "name": "previousOwner",
          "type": "address"
        },
        {
          "indexed": true,
          "internalType": "address",
          "name": "newOwner",
          "type": "address"
        }
      ],
      "name": "OwnershipTransferred",
      "type": "event"
    },
    {
      "anonymous": false,
      "inputs": [
        {
          "indexed": true,
          "internalType": "address",
          "name": "from",
          "type": "address"
        },
        {
          "indexed": true,
          "internalType": "address",
          "name": "to",
          "type": "address"
        },
        {
          "indexed": true,
          "internalType": "uint256",
          "name": "tokenId",
          "type": "uint256"
        }
      ],
      "name": "Transfer",
      "type": "event"
    },
    {
      "inputs": [],
      "name": "MINT_PRICE",
      "outputs": [
        {
          "internalType": "uint256",
          "name": "",
          "type": "uint256"
        }
      ],
      "stateMutability": "view",
      "type": "function"
    },
    {
      "inputs": [],
      "name": "TOTAL_SUPPLY",
      "outputs": [
        {
          "internalType": "uint256",
          "name": "",
          "type": "uint256"
        }
      ],
      "stateMutability": "view",
      "type": "function"
    },
    {
      "inputs": [
        {
          "internalType": "address",
          "name": "to",
          "type": "address"
        },
        {
          "internalType": "uint256",
          "name": "tokenId",
          "type": "uint256"
        }
      ],
      "name": "approve",
      "outputs": [],
      "stateMutability": "nonpayable",
      "type": "function"
    },
    {
      "inputs": [
        {
          "internalType": "address",
          "name": "owner",
          "type": "address"
        }
      ],
      "name": "balanceOf",
      "outputs": [
        {
          "internalType": "uint256",
          "name": "",
          "type": "uint256"
        }
      ],
      "stateMutability": "view",
      "type": "function"
    },
    {
      "inputs": [],
      "name": "baseTokenURI",
      "outputs": [
        {
          "internalType": "string",
          "name": "",
          "type": "string"
        }
      ],
      "stateMutability": "view",
      "type": "function"
    },
    {
      "inputs": [
        {
          "internalType": "uint256",
          "name": "tokenId",
          "type": "uint256"
        }
      ],
      "name": "getApproved",
      "outputs": [
        {
          "internalType": "address",
          "name": "",
          "type": "address"
        }
      ],
      "stateMutability": "view",
      "type": "function"
    },
    {
      "inputs": [],
      "name": "getBaseTokenURI",
      "outputs": [
        {
          "internalType": "string",
          "name": "",
          "type": "string"
        }
      ],
      "stateMutability": "view",
      "type": "function"
    },
    {
      "inputs": [
        {
          "internalType": "address",
          "name": "owner",
          "type": "address"
        },
        {
          "internalType": "address",
          "name": "operator",
          "type": "address"
        }
      ],
      "name": "isApprovedForAll",
      "outputs": [
        {
          "internalType": "bool",
          "name": "",
          "type": "bool"
        }
      ],
      "stateMutability": "view",
      "type": "function"
    },
    {
      "inputs": [
        {
          "internalType": "address",
          "name": "recipient",
          "type": "address"
        }
      ],
      "name": "mintTo",
      "outputs": [
        {
          "internalType": "uint256",
          "name": "",
          "type": "uint256"
        }
      ],
      "stateMutability": "payable",
      "type": "function"
    },
    {
      "inputs": [
        {
          "internalType": "address",
          "name": "recipient",
          "type": "address"
        },
        {
          "internalType": "uint256",
          "name": "count",
          "type": "uint256"
        }
      ],
      "name": "mintToCount",
      "outputs": [
        {
          "internalType": "uint256",
          "name": "",
          "type": "uint256"
        }
      ],
      "stateMutability": "payable",
      "type": "function"
    },
    {
      "inputs": [],
      "name": "name",
      "outputs": [
        {
          "internalType": "string",
          "name": "",
          "type": "string"
        }
      ],
      "stateMutability": "view",
      "type": "function"
    },
    {
      "inputs": [],
      "name": "owner",
      "outputs": [
        {
          "internalType": "address",
          "name": "",
          "type": "address"
        }
      ],
      "stateMutability": "view",
      "type": "function"
    },
    {
      "inputs": [
        {
          "internalType": "uint256",
          "name": "tokenId",
          "type": "uint256"
        }
      ],
      "name": "ownerOf",
      "outputs": [
        {
          "internalType": "address",
          "name": "",
          "type": "address"
        }
      ],
      "stateMutability": "view",
      "type": "function"
    },
    {
      "inputs": [
        {
          "internalType": "address",
          "name": "dest",
          "type": "address"
        }
      ],
      "name": "payments",
      "outputs": [
        {
          "internalType": "uint256",
          "name": "",
          "type": "uint256"
        }
      ],
      "stateMutability": "view",
      "type": "function"
    },
    {
      "inputs": [],
      "name": "renounceOwnership",
      "outputs": [],
      "stateMutability": "nonpayable",
      "type": "function"
    },
    {
      "inputs": [
        {
          "internalType": "address",
          "name": "from",
          "type": "address"
        },
        {
          "internalType": "address",
          "name": "to",
          "type": "address"
        },
        {
          "internalType": "uint256",
          "name": "tokenId",
          "type": "uint256"
        }
      ],
      "name": "safeTransferFrom",
      "outputs": [],
      "stateMutability": "nonpayable",
      "type": "function"
    },
    {
      "inputs": [
        {
          "internalType": "address",
          "name": "from",
          "type": "address"
        },
        {
          "internalType": "address",
          "name": "to",
          "type": "address"
        },
        {
          "internalType": "uint256",
          "name": "tokenId",
          "type": "uint256"
        },
        {
          "internalType": "bytes",
          "name": "_data",
          "type": "bytes"
        }
      ],
      "name": "safeTransferFrom",
      "outputs": [],
      "stateMutability": "nonpayable",
      "type": "function"
    },
    {
      "inputs": [
        {
          "internalType": "address",
          "name": "operator",
          "type": "address"
        },
        {
          "internalType": "bool",
          "name": "approved",
          "type": "bool"
        }
      ],
      "name": "setApprovalForAll",
      "outputs": [],
      "stateMutability": "nonpayable",
      "type": "function"
    },
    {
      "inputs": [
        {
          "internalType": "string",
          "name": "_baseTokenURI",
          "type": "string"
        }
      ],
      "name": "setBaseTokenURI",
      "outputs": [],
      "stateMutability": "nonpayable",
      "type": "function"
    },
    {
      "inputs": [
        {
          "internalType": "bytes4",
          "name": "interfaceId",
          "type": "bytes4"
        }
      ],
      "name": "supportsInterface",
      "outputs": [
        {
          "internalType": "bool",
          "name": "",
          "type": "bool"
        }
      ],
      "stateMutability": "view",
      "type": "function"
    },
    {
      "inputs": [],
      "name": "symbol",
      "outputs": [
        {
          "internalType": "string",
          "name": "",
          "type": "string"
        }
      ],
      "stateMutability": "view",
      "type": "function"
    },
    {
      "inputs": [
        {
          "internalType": "uint256",
          "name": "tokenId",
          "type": "uint256"
        }
      ],
      "name": "tokenURI",
      "outputs": [
        {
          "internalType": "string",
          "name": "",
          "type": "string"
        }
      ],
      "stateMutability": "view",
      "type": "function"
    },
    {
      "inputs": [
        {
          "internalType": "address",
          "name": "from",
          "type": "address"
        },
        {
          "internalType": "address",
          "name": "to",
          "type": "address"
        },
        {
          "internalType": "uint256",
          "name": "tokenId",
          "type": "uint256"
        }
      ],
      "name": "transferFrom",
      "outputs": [],
      "stateMutability": "nonpayable",
      "type": "function"
    },
    {
      "inputs": [
        {
          "internalType": "address",
          "name": "newOwner",
          "type": "address"
        }
      ],
      "name": "transferOwnership",
      "outputs": [],
      "stateMutability": "nonpayable",
      "type": "function"
    },
    {
      "inputs": [
        {
          "internalType": "address payable",
          "name": "payee",
          "type": "address"
        }
      ],
      "name": "withdrawPayments",
      "outputs": [],
      "stateMutability": "nonpayable",
      "type": "function"
    }
  ],
  "bytecode": "0x60a06040523480156200001157600080fd5b506040518060400160405280600581526020017f54544e46540000000000000000000000000000000000000000000000000000008152506040518060400160405280600381526020017f4e4654000000000000000000000000000000000000000000000000000000000081525081600090805190602001906200009692919062000230565b508060019080519060200190620000af92919062000230565b505050604051620000c090620002c1565b604051809103906000f080158015620000dd573d6000803e3d6000fd5b5073ffffffffffffffffffffffffffffffffffffffff1660808173ffffffffffffffffffffffffffffffffffffffff1660601b8152505062000134620001286200016260201b60201c565b6200016a60201b60201c565b60405180602001604052806000815250600890805190602001906200015b92919062000230565b5062000353565b600033905090565b6000600660009054906101000a900473ffffffffffffffffffffffffffffffffffffffff16905081600660006101000a81548173ffffffffffffffffffffffffffffffffffffffff021916908373ffffffffffffffffffffffffffffffffffffffff1602179055508173ffffffffffffffffffffffffffffffffffffffff168173ffffffffffffffffffffffffffffffffffffffff167f8be0079c531659141344cd1fd0a4f28419497f9722a3daafe3b4186f6b6457e060405160405180910390a35050565b8280546200023e90620002ee565b90600052602060002090601f016020900481019282620002625760008555620002ae565b82601f106200027d57805160ff1916838001178555620002ae565b82800160010185558215620002ae579182015b82811115620002ad57825182559160200191906001019062000290565b5b509050620002bd9190620002cf565b5090565b610d09806200392a83390190565b5b80821115620002ea576000816000905550600101620002d0565b5090565b600060028204905060018216806200030757607f821691505b602082108114156200031e576200031d62000324565b5b50919050565b7f4e487b7100000000000000000000000000000000000000000000000000000000600052602260045260246000fd5b60805160601c6135b162000379600039600081816110d801526117f001526135b16000f3fe6080604052600436106101665760003560e01c80638da5cb5b116100d1578063bdc32be01161008a578063d547cfb711610064578063d547cfb714610534578063e2982c211461055f578063e985e9c51461059c578063f2fde38b146105d957610166565b8063bdc32be0146104a1578063c002d23d146104cc578063c87b56dd146104f757610166565b80638da5cb5b1461039e578063902d55a5146103c957806393285ddf146103f457806395d89b4114610424578063a22cb4651461044f578063b88d4fde1461047857610166565b806331b3eb941161012357806331b3eb941461028b57806342842e0e146102b45780636352211e146102dd57806370a082311461031a578063715018a614610357578063755edd171461036e57610166565b806301ffc9a71461016b57806306fdde03146101a8578063081812fc146101d3578063095ea7b31461021057806323b872dd1461023957806330176e1314610262575b600080fd5b34801561017757600080fd5b50610192600480360381019061018d919061255b565b610602565b60405161019f9190612a18565b60405180910390f35b3480156101b457600080fd5b506101bd6106e4565b6040516101ca9190612a33565b60405180910390f35b3480156101df57600080fd5b506101fa60048036038101906101f591906125ee565b610776565b6040516102079190612996565b60405180910390f35b34801561021c57600080fd5b506102376004803603810190610232919061251f565b6107fb565b005b34801561024557600080fd5b50610260600480360381019061025b9190612419565b610913565b005b34801561026e57600080fd5b50610289600480360381019061028491906125ad565b610973565b005b34801561029757600080fd5b506102b260048036038101906102ad91906123b4565b610a09565b005b3480156102c057600080fd5b506102db60048036038101906102d69190612419565b610a91565b005b3480156102e957600080fd5b5061030460048036038101906102ff91906125ee565b610ab1565b6040516103119190612996565b60405180910390f35b34801561032657600080fd5b50610341600480360381019061033c919061238b565b610b63565b60405161034e9190612c75565b60405180910390f35b34801561036357600080fd5b5061036c610c1b565b005b6103886004803603810190610383919061238b565b610ca3565b6040516103959190612c75565b60405180910390f35b3480156103aa57600080fd5b506103b3610d22565b6040516103c09190612996565b60405180910390f35b3480156103d557600080fd5b506103de610d4c565b6040516103eb9190612c75565b60405180910390f35b61040e6004803603810190610409919061251f565b610d52565b60405161041b9190612c75565b60405180910390f35b34801561043057600080fd5b50610439610dff565b6040516104469190612a33565b60405180910390f35b34801561045b57600080fd5b50610476600480360381019061047191906124e3565b610e91565b005b34801561048457600080fd5b5061049f600480360381019061049a9190612468565b610ea7565b005b3480156104ad57600080fd5b506104b6610f09565b6040516104c39190612a33565b60405180910390f35b3480156104d857600080fd5b506104e1610f94565b6040516104ee9190612c75565b60405180910390f35b34801561050357600080fd5b5061051e600480360381019061051991906125ee565b610f9f565b60405161052b9190612a33565b60405180910390f35b34801561054057600080fd5b50610549611046565b6040516105569190612a33565b60405180910390f35b34801561056b57600080fd5b506105866004803603810190610581919061238b565b6110d4565b6040516105939190612c75565b60405180910390f35b3480156105a857600080fd5b506105c360048036038101906105be91906123dd565b611186565b6040516105d09190612a18565b60405180910390f35b3480156105e557600080fd5b5061060060048036038101906105fb919061238b565b61121a565b005b60007f80ac58cd000000000000000000000000000000000000000000000000000000007bffffffffffffffffffffffffffffffffffffffffffffffffffffffff1916827bffffffffffffffffffffffffffffffffffffffffffffffffffffffff191614806106cd57507f5b5e139f000000000000000000000000000000000000000000000000000000007bffffffffffffffffffffffffffffffffffffffffffffffffffffffff1916827bffffffffffffffffffffffffffffffffffffffffffffffffffffffff1916145b806106dd57506106dc82611312565b5b9050919050565b6060600080546106f390612edd565b80601f016020809104026020016040519081016040528092919081815260200182805461071f90612edd565b801561076c5780601f106107415761010080835404028352916020019161076c565b820191906000526020600020905b81548152906001019060200180831161074f57829003601f168201915b5050505050905090565b60006107818261137c565b6107c0576040517f08c379a00000000000000000000000000000000000000000000000000000000081526004016107b790612bb5565b60405180910390fd5b6004600083815260200190815260200160002060009054906101000a900473ffffffffffffffffffffffffffffffffffffffff169050919050565b600061080682610ab1565b90508073ffffffffffffffffffffffffffffffffffffffff168373ffffffffffffffffffffffffffffffffffffffff161415610877576040517f08c379a000000000000000000000000000000000000000000000000000000000815260040161086e90612c15565b60405180910390fd5b8073ffffffffffffffffffffffffffffffffffffffff166108966113e8565b73ffffffffffffffffffffffffffffffffffffffff1614806108c557506108c4816108bf6113e8565b611186565b5b610904576040517f08c379a00000000000000000000000000000000000000000000000000000000081526004016108fb90612b35565b60405180910390fd5b61090e83836113f0565b505050565b61092461091e6113e8565b826114a9565b610963576040517f08c379a000000000000000000000000000000000000000000000000000000000815260040161095a90612c35565b60405180910390fd5b61096e838383611587565b505050565b61097b6113e8565b73ffffffffffffffffffffffffffffffffffffffff16610999610d22565b73ffffffffffffffffffffffffffffffffffffffff16146109ef576040517f08c379a00000000000000000000000000000000000000000000000000000000081526004016109e690612bd5565b60405180910390fd5b8060089080519060200190610a05929190612185565b5050565b610a116113e8565b73ffffffffffffffffffffffffffffffffffffffff16610a2f610d22565b73ffffffffffffffffffffffffffffffffffffffff1614610a85576040517f08c379a0000000000000000000000000000000000000000000000000000000008152600401610a7c90612bd5565b60405180910390fd5b610a8e816117ee565b50565b610aac83838360405180602001604052806000815250610ea7565b505050565b6000806002600084815260200190815260200160002060009054906101000a900473ffffffffffffffffffffffffffffffffffffffff169050600073ffffffffffffffffffffffffffffffffffffffff168173ffffffffffffffffffffffffffffffffffffffff161415610b5a576040517f08c379a0000000000000000000000000000000000000000000000000000000008152600401610b5190612b75565b60405180910390fd5b80915050919050565b60008073ffffffffffffffffffffffffffffffffffffffff168273ffffffffffffffffffffffffffffffffffffffff161415610bd4576040517f08c379a0000000000000000000000000000000000000000000000000000000008152600401610bcb90612b55565b60405180910390fd5b600360008373ffffffffffffffffffffffffffffffffffffffff1673ffffffffffffffffffffffffffffffffffffffff168152602001908152602001600020549050919050565b610c236113e8565b73ffffffffffffffffffffffffffffffffffffffff16610c41610d22565b73ffffffffffffffffffffffffffffffffffffffff1614610c97576040517f08c379a0000000000000000000000000000000000000000000000000000000008152600401610c8e90612bd5565b60405180910390fd5b610ca1600061187c565b565b600080610cb06007611942565b90506127108110610cf6576040517f08c379a0000000000000000000000000000000000000000000000000000000008152600401610ced90612c55565b60405180910390fd5b610d006007611950565b6000610d0c6007611942565b9050610d188482611966565b8092505050919050565b6000600660009054906101000a900473ffffffffffffffffffffffffffffffffffffffff16905090565b61271081565b600080610d5f6007611942565b90506127108382610d709190612d5a565b10610db0576040517f08c379a0000000000000000000000000000000000000000000000000000000008152600401610da790612c55565b60405180910390fd5b600080600090505b84811015610df357610dca6007611950565b610dd46007611942565b9150610de08683611966565b8080610deb90612f40565b915050610db8565b50809250505092915050565b606060018054610e0e90612edd565b80601f0160208091040260200160405190810160405280929190818152602001828054610e3a90612edd565b8015610e875780601f10610e5c57610100808354040283529160200191610e87565b820191906000526020600020905b815481529060010190602001808311610e6a57829003601f168201915b5050505050905090565b610ea3610e9c6113e8565b8383611984565b5050565b610eb8610eb26113e8565b836114a9565b610ef7576040517f08c379a0000000000000000000000000000000000000000000000000000000008152600401610eee90612c35565b60405180910390fd5b610f0384848484611af1565b50505050565b6060610f136113e8565b73ffffffffffffffffffffffffffffffffffffffff16610f31610d22565b73ffffffffffffffffffffffffffffffffffffffff1614610f87576040517f08c379a0000000000000000000000000000000000000000000000000000000008152600401610f7e90612bd5565b60405180910390fd5b610f8f611b4d565b905090565b66038d7ea4c6800081565b6060610faa8261137c565b610fe9576040517f08c379a0000000000000000000000000000000000000000000000000000000008152600401610fe090612bf5565b60405180910390fd5b6000610ff3611b4d565b90506000815111611013576040518060200160405280600081525061103e565b8061101d84611bdf565b60405160200161102e929190612972565b6040516020818303038152906040525b915050919050565b6008805461105390612edd565b80601f016020809104026020016040519081016040528092919081815260200182805461107f90612edd565b80156110cc5780601f106110a1576101008083540402835291602001916110cc565b820191906000526020600020905b8154815290600101906020018083116110af57829003601f168201915b505050505081565b60007f000000000000000000000000000000000000000000000000000000000000000073ffffffffffffffffffffffffffffffffffffffff1663e3a9db1a836040518263ffffffff1660e01b815260040161112f9190612996565b60206040518083038186803b15801561114757600080fd5b505afa15801561115b573d6000803e3d6000fd5b505050506040513d601f19601f8201168201806040525081019061117f9190612617565b9050919050565b6000600560008473ffffffffffffffffffffffffffffffffffffffff1673ffffffffffffffffffffffffffffffffffffffff16815260200190815260200160002060008373ffffffffffffffffffffffffffffffffffffffff1673ffffffffffffffffffffffffffffffffffffffff16815260200190815260200160002060009054906101000a900460ff16905092915050565b6112226113e8565b73ffffffffffffffffffffffffffffffffffffffff16611240610d22565b73ffffffffffffffffffffffffffffffffffffffff1614611296576040517f08c379a000000000000000000000000000000000000000000000000000000000815260040161128d90612bd5565b60405180910390fd5b600073ffffffffffffffffffffffffffffffffffffffff168173ffffffffffffffffffffffffffffffffffffffff161415611306576040517f08c379a00000000000000000000000000000000000000000000000000000000081526004016112fd90612a75565b60405180910390fd5b61130f8161187c565b50565b60007f01ffc9a7000000000000000000000000000000000000000000000000000000007bffffffffffffffffffffffffffffffffffffffffffffffffffffffff1916827bffffffffffffffffffffffffffffffffffffffffffffffffffffffff1916149050919050565b60008073ffffffffffffffffffffffffffffffffffffffff166002600084815260200190815260200160002060009054906101000a900473ffffffffffffffffffffffffffffffffffffffff1673ffffffffffffffffffffffffffffffffffffffff1614159050919050565b600033905090565b816004600083815260200190815260200160002060006101000a81548173ffffffffffffffffffffffffffffffffffffffff021916908373ffffffffffffffffffffffffffffffffffffffff160217905550808273ffffffffffffffffffffffffffffffffffffffff1661146383610ab1565b73ffffffffffffffffffffffffffffffffffffffff167f8c5be1e5ebec7d5bd14f71427d1e84f3dd0314c0f7b2291e5b200ac8c7c3b92560405160405180910390a45050565b60006114b48261137c565b6114f3576040517f08c379a00000000000000000000000000000000000000000000000000000000081526004016114ea90612b15565b60405180910390fd5b60006114fe83610ab1565b90508073ffffffffffffffffffffffffffffffffffffffff168473ffffffffffffffffffffffffffffffffffffffff161480611540575061153f8185611186565b5b8061157e57508373ffffffffffffffffffffffffffffffffffffffff1661156684610776565b73ffffffffffffffffffffffffffffffffffffffff16145b91505092915050565b8273ffffffffffffffffffffffffffffffffffffffff166115a782610ab1565b73ffffffffffffffffffffffffffffffffffffffff16146115fd576040517f08c379a00000000000000000000000000000000000000000000000000000000081526004016115f490612a95565b60405180910390fd5b600073ffffffffffffffffffffffffffffffffffffffff168273ffffffffffffffffffffffffffffffffffffffff16141561166d576040517f08c379a000000000000000000000000000000000000000000000000000000000815260040161166490612ad5565b60405180910390fd5b611678838383611d8c565b6116836000826113f0565b6001600360008573ffffffffffffffffffffffffffffffffffffffff1673ffffffffffffffffffffffffffffffffffffffff16815260200190815260200160002060008282546116d39190612de1565b925050819055506001600360008473ffffffffffffffffffffffffffffffffffffffff1673ffffffffffffffffffffffffffffffffffffffff168152602001908152602001600020600082825461172a9190612d5a565b92505081905550816002600083815260200190815260200160002060006101000a81548173ffffffffffffffffffffffffffffffffffffffff021916908373ffffffffffffffffffffffffffffffffffffffff160217905550808273ffffffffffffffffffffffffffffffffffffffff168473ffffffffffffffffffffffffffffffffffffffff167fddf252ad1be2c89b69c2b068fc378daa952ba7f163c4a11628f55a4df523b3ef60405160405180910390a46117e9838383611d91565b505050565b7f000000000000000000000000000000000000000000000000000000000000000073ffffffffffffffffffffffffffffffffffffffff166351cff8d9826040518263ffffffff1660e01b815260040161184791906129b1565b600060405180830381600087803b15801561186157600080fd5b505af1158015611875573d6000803e3d6000fd5b5050505050565b6000600660009054906101000a900473ffffffffffffffffffffffffffffffffffffffff16905081600660006101000a81548173ffffffffffffffffffffffffffffffffffffffff021916908373ffffffffffffffffffffffffffffffffffffffff1602179055508173ffffffffffffffffffffffffffffffffffffffff168173ffffffffffffffffffffffffffffffffffffffff167f8be0079c531659141344cd1fd0a4f28419497f9722a3daafe3b4186f6b6457e060405160405180910390a35050565b600081600001549050919050565b6001816000016000828254019250508190555050565b611980828260405180602001604052806000815250611d96565b5050565b8173ffffffffffffffffffffffffffffffffffffffff168373ffffffffffffffffffffffffffffffffffffffff1614156119f3576040517f08c379a00000000000000000000000000000000000000000000000000000000081526004016119ea90612af5565b60405180910390fd5b80600560008573ffffffffffffffffffffffffffffffffffffffff1673ffffffffffffffffffffffffffffffffffffffff16815260200190815260200160002060008473ffffffffffffffffffffffffffffffffffffffff1673ffffffffffffffffffffffffffffffffffffffff16815260200190815260200160002060006101000a81548160ff0219169083151502179055508173ffffffffffffffffffffffffffffffffffffffff168373ffffffffffffffffffffffffffffffffffffffff167f17307eab39ab6107e8899845ad3d59bd9653f200f220920489ca2b5937696c3183604051611ae49190612a18565b60405180910390a3505050565b611afc848484611587565b611b0884848484611df1565b611b47576040517f08c379a0000000000000000000000000000000000000000000000000000000008152600401611b3e90612a55565b60405180910390fd5b50505050565b606060088054611b5c90612edd565b80601f0160208091040260200160405190810160405280929190818152602001828054611b8890612edd565b8015611bd55780601f10611baa57610100808354040283529160200191611bd5565b820191906000526020600020905b815481529060010190602001808311611bb857829003601f168201915b5050505050905090565b60606000821415611c27576040518060400160405280600181526020017f30000000000000000000000000000000000000000000000000000000000000008152509050611d87565b600082905060005b60008214611c59578080611c4290612f40565b915050600a82611c529190612db0565b9150611c2f565b60008167ffffffffffffffff811115611c9b577f4e487b7100000000000000000000000000000000000000000000000000000000600052604160045260246000fd5b6040519080825280601f01601f191660200182016040528015611ccd5781602001600182028036833780820191505090505b5090505b60008514611d8057600182611ce69190612de1565b9150600a85611cf59190612f89565b6030611d019190612d5a565b60f81b818381518110611d3d577f4e487b7100000000000000000000000000000000000000000000000000000000600052603260045260246000fd5b60200101907effffffffffffffffffffffffffffffffffffffffffffffffffffffffffffff1916908160001a905350600a85611d799190612db0565b9450611cd1565b8093505050505b919050565b505050565b505050565b611da08383611f88565b611dad6000848484611df1565b611dec576040517f08c379a0000000000000000000000000000000000000000000000000000000008152600401611de390612a55565b60405180910390fd5b505050565b6000611e128473ffffffffffffffffffffffffffffffffffffffff16612162565b15611f7b578373ffffffffffffffffffffffffffffffffffffffff1663150b7a02611e3b6113e8565b8786866040518563ffffffff1660e01b8152600401611e5d94939291906129cc565b602060405180830381600087803b158015611e7757600080fd5b505af1925050508015611ea857506040513d601f19601f82011682018060405250810190611ea59190612584565b60015b611f2b573d8060008114611ed8576040519150601f19603f3d011682016040523d82523d6000602084013e611edd565b606091505b50600081511415611f23576040517f08c379a0000000000000000000000000000000000000000000000000000000008152600401611f1a90612a55565b60405180910390fd5b805181602001fd5b63150b7a0260e01b7bffffffffffffffffffffffffffffffffffffffffffffffffffffffff1916817bffffffffffffffffffffffffffffffffffffffffffffffffffffffff191614915050611f80565b600190505b949350505050565b600073ffffffffffffffffffffffffffffffffffffffff168273ffffffffffffffffffffffffffffffffffffffff161415611ff8576040517f08c379a0000000000000000000000000000000000000000000000000000000008152600401611fef90612b95565b60405180910390fd5b6120018161137c565b15612041576040517f08c379a000000000000000000000000000000000000000000000000000000000815260040161203890612ab5565b60405180910390fd5b61204d60008383611d8c565b6001600360008473ffffffffffffffffffffffffffffffffffffffff1673ffffffffffffffffffffffffffffffffffffffff168152602001908152602001600020600082825461209d9190612d5a565b92505081905550816002600083815260200190815260200160002060006101000a81548173ffffffffffffffffffffffffffffffffffffffff021916908373ffffffffffffffffffffffffffffffffffffffff160217905550808273ffffffffffffffffffffffffffffffffffffffff16600073ffffffffffffffffffffffffffffffffffffffff167fddf252ad1be2c89b69c2b068fc378daa952ba7f163c4a11628f55a4df523b3ef60405160405180910390a461215e60008383611d91565b5050565b6000808273ffffffffffffffffffffffffffffffffffffffff163b119050919050565b82805461219190612edd565b90600052602060002090601f0160209004810192826121b357600085556121fa565b82601f106121cc57805160ff19168380011785556121fa565b828001600101855582156121fa579182015b828111156121f95782518255916020019190600101906121de565b5b509050612207919061220b565b5090565b5b8082111561222457600081600090555060010161220c565b5090565b600061223b61223684612cb5565b612c90565b90508281526020810184848401111561225357600080fd5b61225e848285612e9b565b509392505050565b600061227961227484612ce6565b612c90565b90508281526020810184848401111561229157600080fd5b61229c848285612e9b565b509392505050565b6000813590506122b381613508565b92915050565b6000813590506122c88161351f565b92915050565b6000813590506122dd81613536565b92915050565b6000813590506122f28161354d565b92915050565b6000815190506123078161354d565b92915050565b600082601f83011261231e57600080fd5b813561232e848260208601612228565b91505092915050565b600082601f83011261234857600080fd5b8135612358848260208601612266565b91505092915050565b60008135905061237081613564565b92915050565b60008151905061238581613564565b92915050565b60006020828403121561239d57600080fd5b60006123ab848285016122a4565b91505092915050565b6000602082840312156123c657600080fd5b60006123d4848285016122b9565b91505092915050565b600080604083850312156123f057600080fd5b60006123fe858286016122a4565b925050602061240f858286016122a4565b9150509250929050565b60008060006060848603121561242e57600080fd5b600061243c868287016122a4565b935050602061244d868287016122a4565b925050604061245e86828701612361565b9150509250925092565b6000806000806080858703121561247e57600080fd5b600061248c878288016122a4565b945050602061249d878288016122a4565b93505060406124ae87828801612361565b925050606085013567ffffffffffffffff8111156124cb57600080fd5b6124d78782880161230d565b91505092959194509250565b600080604083850312156124f657600080fd5b6000612504858286016122a4565b9250506020612515858286016122ce565b9150509250929050565b6000806040838503121561253257600080fd5b6000612540858286016122a4565b925050602061255185828601612361565b9150509250929050565b60006020828403121561256d57600080fd5b600061257b848285016122e3565b91505092915050565b60006020828403121561259657600080fd5b60006125a4848285016122f8565b91505092915050565b6000602082840312156125bf57600080fd5b600082013567ffffffffffffffff8111156125d957600080fd5b6125e584828501612337565b91505092915050565b60006020828403121561260057600080fd5b600061260e84828501612361565b91505092915050565b60006020828403121561262957600080fd5b600061263784828501612376565b91505092915050565b61264981612e27565b82525050565b61265881612e15565b82525050565b61266781612e39565b82525050565b600061267882612d17565b6126828185612d2d565b9350612692818560208601612eaa565b61269b81613076565b840191505092915050565b60006126b182612d22565b6126bb8185612d3e565b93506126cb818560208601612eaa565b6126d481613076565b840191505092915050565b60006126ea82612d22565b6126f48185612d4f565b9350612704818560208601612eaa565b80840191505092915050565b600061271d603283612d3e565b915061272882613087565b604082019050919050565b6000612740602683612d3e565b915061274b826130d6565b604082019050919050565b6000612763602583612d3e565b915061276e82613125565b604082019050919050565b6000612786601c83612d3e565b915061279182613174565b602082019050919050565b60006127a9602483612d3e565b91506127b48261319d565b604082019050919050565b60006127cc601983612d3e565b91506127d7826131ec565b602082019050919050565b60006127ef602c83612d3e565b91506127fa82613215565b604082019050919050565b6000612812603883612d3e565b915061281d82613264565b604082019050919050565b6000612835602a83612d3e565b9150612840826132b3565b604082019050919050565b6000612858602983612d3e565b915061286382613302565b604082019050919050565b600061287b602083612d3e565b915061288682613351565b602082019050919050565b600061289e602c83612d3e565b91506128a98261337a565b604082019050919050565b60006128c1602083612d3e565b91506128cc826133c9565b602082019050919050565b60006128e4602f83612d3e565b91506128ef826133f2565b604082019050919050565b6000612907602183612d3e565b915061291282613441565b604082019050919050565b600061292a603183612d3e565b915061293582613490565b604082019050919050565b600061294d601283612d3e565b9150612958826134df565b602082019050919050565b61296c81612e91565b82525050565b600061297e82856126df565b915061298a82846126df565b91508190509392505050565b60006020820190506129ab600083018461264f565b92915050565b60006020820190506129c66000830184612640565b92915050565b60006080820190506129e1600083018761264f565b6129ee602083018661264f565b6129fb6040830185612963565b8181036060830152612a0d818461266d565b905095945050505050565b6000602082019050612a2d600083018461265e565b92915050565b60006020820190508181036000830152612a4d81846126a6565b905092915050565b60006020820190508181036000830152612a6e81612710565b9050919050565b60006020820190508181036000830152612a8e81612733565b9050919050565b60006020820190508181036000830152612aae81612756565b9050919050565b60006020820190508181036000830152612ace81612779565b9050919050565b60006020820190508181036000830152612aee8161279c565b9050919050565b60006020820190508181036000830152612b0e816127bf565b9050919050565b60006020820190508181036000830152612b2e816127e2565b9050919050565b60006020820190508181036000830152612b4e81612805565b9050919050565b60006020820190508181036000830152612b6e81612828565b9050919050565b60006020820190508181036000830152612b8e8161284b565b9050919050565b60006020820190508181036000830152612bae8161286e565b9050919050565b60006020820190508181036000830152612bce81612891565b9050919050565b60006020820190508181036000830152612bee816128b4565b9050919050565b60006020820190508181036000830152612c0e816128d7565b9050919050565b60006020820190508181036000830152612c2e816128fa565b9050919050565b60006020820190508181036000830152612c4e8161291d565b9050919050565b60006020820190508181036000830152612c6e81612940565b9050919050565b6000602082019050612c8a6000830184612963565b92915050565b6000612c9a612cab565b9050612ca68282612f0f565b919050565b6000604051905090565b600067ffffffffffffffff821115612cd057612ccf613047565b5b612cd982613076565b9050602081019050919050565b600067ffffffffffffffff821115612d0157612d00613047565b5b612d0a82613076565b9050602081019050919050565b600081519050919050565b600081519050919050565b600082825260208201905092915050565b600082825260208201905092915050565b600081905092915050565b6000612d6582612e91565b9150612d7083612e91565b9250827fffffffffffffffffffffffffffffffffffffffffffffffffffffffffffffffff03821115612da557612da4612fba565b5b828201905092915050565b6000612dbb82612e91565b9150612dc683612e91565b925082612dd657612dd5612fe9565b5b828204905092915050565b6000612dec82612e91565b9150612df783612e91565b925082821015612e0a57612e09612fba565b5b828203905092915050565b6000612e2082612e71565b9050919050565b6000612e3282612e71565b9050919050565b60008115159050919050565b60007fffffffff0000000000000000000000000000000000000000000000000000000082169050919050565b600073ffffffffffffffffffffffffffffffffffffffff82169050919050565b6000819050919050565b82818337600083830152505050565b60005b83811015612ec8578082015181840152602081019050612ead565b83811115612ed7576000848401525b50505050565b60006002820490506001821680612ef557607f821691505b60208210811415612f0957612f08613018565b5b50919050565b612f1882613076565b810181811067ffffffffffffffff82111715612f3757612f36613047565b5b80604052505050565b6000612f4b82612e91565b91507fffffffffffffffffffffffffffffffffffffffffffffffffffffffffffffffff821415612f7e57612f7d612fba565b5b600182019050919050565b6000612f9482612e91565b9150612f9f83612e91565b925082612faf57612fae612fe9565b5b828206905092915050565b7f4e487b7100000000000000000000000000000000000000000000000000000000600052601160045260246000fd5b7f4e487b7100000000000000000000000000000000000000000000000000000000600052601260045260246000fd5b7f4e487b7100000000000000000000000000000000000000000000000000000000600052602260045260246000fd5b7f4e487b7100000000000000000000000000000000000000000000000000000000600052604160045260246000fd5b6000601f19601f8301169050919050565b7f4552433732313a207472616e7366657220746f206e6f6e20455243373231526560008201527f63656976657220696d706c656d656e7465720000000000000000000000000000602082015250565b7f4f776e61626c653a206e6577206f776e657220697320746865207a65726f206160008201527f6464726573730000000000000000000000000000000000000000000000000000602082015250565b7f4552433732313a207472616e736665722066726f6d20696e636f72726563742060008201527f6f776e6572000000000000000000000000000000000000000000000000000000602082015250565b7f4552433732313a20746f6b656e20616c7265616479206d696e74656400000000600082015250565b7f4552433732313a207472616e7366657220746f20746865207a65726f2061646460008201527f7265737300000000000000000000000000000000000000000000000000000000602082015250565b7f4552433732313a20617070726f766520746f2063616c6c657200000000000000600082015250565b7f4552433732313a206f70657261746f7220717565727920666f72206e6f6e657860008201527f697374656e7420746f6b656e0000000000000000000000000000000000000000602082015250565b7f4552433732313a20617070726f76652063616c6c6572206973206e6f74206f7760008201527f6e6572206e6f7220617070726f76656420666f7220616c6c0000000000000000602082015250565b7f4552433732313a2062616c616e636520717565727920666f7220746865207a6560008201527f726f206164647265737300000000000000000000000000000000000000000000602082015250565b7f4552433732313a206f776e657220717565727920666f72206e6f6e657869737460008201527f656e7420746f6b656e0000000000000000000000000000000000000000000000602082015250565b7f4552433732313a206d696e7420746f20746865207a65726f2061646472657373600082015250565b7f4552433732313a20617070726f76656420717565727920666f72206e6f6e657860008201527f697374656e7420746f6b656e0000000000000000000000000000000000000000602082015250565b7f4f776e61626c653a2063616c6c6572206973206e6f7420746865206f776e6572600082015250565b7f4552433732314d657461646174613a2055524920717565727920666f72206e6f60008201527f6e6578697374656e7420746f6b656e0000000000000000000000000000000000602082015250565b7f4552433732313a20617070726f76616c20746f2063757272656e74206f776e6560008201527f7200000000000000000000000000000000000000000000000000000000000000602082015250565b7f4552433732313a207472616e736665722063616c6c6572206973206e6f74206f60008201527f776e6572206e6f7220617070726f766564000000000000000000000000000000602082015250565b7f4d617820737570706c7920726561636865640000000000000000000000000000600082015250565b61351181612e15565b811461351c57600080fd5b50565b61352881612e27565b811461353357600080fd5b50565b61353f81612e39565b811461354a57600080fd5b50565b61355681612e45565b811461356157600080fd5b50565b61356d81612e91565b811461357857600080fd5b5056fea264697066735822122083b4cba8d487694ba0723e97cac0a80ee7468ca9cce994985854a3f56bde9a8964736f6c63430008010033608060405234801561001057600080fd5b5061002d61002261003260201b60201c565b61003a60201b60201c565b6100fe565b600033905090565b60008060009054906101000a900473ffffffffffffffffffffffffffffffffffffffff169050816000806101000a81548173ffffffffffffffffffffffffffffffffffffffff021916908373ffffffffffffffffffffffffffffffffffffffff1602179055508173ffffffffffffffffffffffffffffffffffffffff168173ffffffffffffffffffffffffffffffffffffffff167f8be0079c531659141344cd1fd0a4f28419497f9722a3daafe3b4186f6b6457e060405160405180910390a35050565b610bfc8061010d6000396000f3fe6080604052600436106100555760003560e01c806351cff8d91461005a578063715018a6146100835780638da5cb5b1461009a578063e3a9db1a146100c5578063f2fde38b14610102578063f340fa011461012b575b600080fd5b34801561006657600080fd5b50610081600480360381019061007c91906107f5565b610147565b005b34801561008f57600080fd5b506100986102c7565b005b3480156100a657600080fd5b506100af61034f565b6040516100bc9190610900565b60405180910390f35b3480156100d157600080fd5b506100ec60048036038101906100e791906107cc565b610378565b6040516100f9919061099b565b60405180910390f35b34801561010e57600080fd5b50610129600480360381019061012491906107cc565b6103c1565b005b610145600480360381019061014091906107cc565b6104b9565b005b61014f6105e2565b73ffffffffffffffffffffffffffffffffffffffff1661016d61034f565b73ffffffffffffffffffffffffffffffffffffffff16146101c3576040517f08c379a00000000000000000000000000000000000000000000000000000000081526004016101ba9061097b565b60405180910390fd5b6000600160008373ffffffffffffffffffffffffffffffffffffffff1673ffffffffffffffffffffffffffffffffffffffff1681526020019081526020016000205490506000600160008473ffffffffffffffffffffffffffffffffffffffff1673ffffffffffffffffffffffffffffffffffffffff16815260200190815260200160002081905550610275818373ffffffffffffffffffffffffffffffffffffffff166105ea90919063ffffffff16565b8173ffffffffffffffffffffffffffffffffffffffff167f7084f5476618d8e60b11ef0d7d3f06914655adb8793e28ff7f018d4c76d505d5826040516102bb919061099b565b60405180910390a25050565b6102cf6105e2565b73ffffffffffffffffffffffffffffffffffffffff166102ed61034f565b73ffffffffffffffffffffffffffffffffffffffff1614610343576040517f08c379a000000000000000000000000000000000000000000000000000000000815260040161033a9061097b565b60405180910390fd5b61034d60006106de565b565b60008060009054906101000a900473ffffffffffffffffffffffffffffffffffffffff16905090565b6000600160008373ffffffffffffffffffffffffffffffffffffffff1673ffffffffffffffffffffffffffffffffffffffff168152602001908152602001600020549050919050565b6103c96105e2565b73ffffffffffffffffffffffffffffffffffffffff166103e761034f565b73ffffffffffffffffffffffffffffffffffffffff161461043d576040517f08c379a00000000000000000000000000000000000000000000000000000000081526004016104349061097b565b60405180910390fd5b600073ffffffffffffffffffffffffffffffffffffffff168173ffffffffffffffffffffffffffffffffffffffff1614156104ad576040517f08c379a00000000000000000000000000000000000000000000000000000000081526004016104a49061091b565b60405180910390fd5b6104b6816106de565b50565b6104c16105e2565b73ffffffffffffffffffffffffffffffffffffffff166104df61034f565b73ffffffffffffffffffffffffffffffffffffffff1614610535576040517f08c379a000000000000000000000000000000000000000000000000000000000815260040161052c9061097b565b60405180910390fd5b600034905080600160008473ffffffffffffffffffffffffffffffffffffffff1673ffffffffffffffffffffffffffffffffffffffff168152602001908152602001600020600082825461058991906109d2565b925050819055508173ffffffffffffffffffffffffffffffffffffffff167f2da466a7b24304f47e87fa2e1e5a81b9831ce54fec19055ce277ca2f39ba42c4826040516105d6919061099b565b60405180910390a25050565b600033905090565b8047101561062d576040517f08c379a00000000000000000000000000000000000000000000000000000000081526004016106249061095b565b60405180910390fd5b60008273ffffffffffffffffffffffffffffffffffffffff1682604051610653906108eb565b60006040518083038185875af1925050503d8060008114610690576040519150601f19603f3d011682016040523d82523d6000602084013e610695565b606091505b50509050806106d9576040517f08c379a00000000000000000000000000000000000000000000000000000000081526004016106d09061093b565b60405180910390fd5b505050565b60008060009054906101000a900473ffffffffffffffffffffffffffffffffffffffff169050816000806101000a81548173ffffffffffffffffffffffffffffffffffffffff021916908373ffffffffffffffffffffffffffffffffffffffff1602179055508173ffffffffffffffffffffffffffffffffffffffff168173ffffffffffffffffffffffffffffffffffffffff167f8be0079c531659141344cd1fd0a4f28419497f9722a3daafe3b4186f6b6457e060405160405180910390a35050565b6000813590506107b181610b98565b92915050565b6000813590506107c681610baf565b92915050565b6000602082840312156107de57600080fd5b60006107ec848285016107a2565b91505092915050565b60006020828403121561080757600080fd5b6000610815848285016107b7565b91505092915050565b61082781610a28565b82525050565b600061083a6026836109c1565b915061084582610aa5565b604082019050919050565b600061085d603a836109c1565b915061086882610af4565b604082019050919050565b6000610880601d836109c1565b915061088b82610b43565b602082019050919050565b60006108a36020836109c1565b91506108ae82610b6c565b602082019050919050565b60006108c66000836109b6565b91506108d182610b95565b600082019050919050565b6108e581610a6c565b82525050565b60006108f6826108b9565b9150819050919050565b6000602082019050610915600083018461081e565b92915050565b600060208201905081810360008301526109348161082d565b9050919050565b6000602082019050818103600083015261095481610850565b9050919050565b6000602082019050818103600083015261097481610873565b9050919050565b6000602082019050818103600083015261099481610896565b9050919050565b60006020820190506109b060008301846108dc565b92915050565b600081905092915050565b600082825260208201905092915050565b60006109dd82610a6c565b91506109e883610a6c565b9250827fffffffffffffffffffffffffffffffffffffffffffffffffffffffffffffffff03821115610a1d57610a1c610a76565b5b828201905092915050565b6000610a3382610a4c565b9050919050565b6000610a4582610a4c565b9050919050565b600073ffffffffffffffffffffffffffffffffffffffff82169050919050565b6000819050919050565b7f4e487b7100000000000000000000000000000000000000000000000000000000600052601160045260246000fd5b7f4f776e61626c653a206e6577206f776e657220697320746865207a65726f206160008201527f6464726573730000000000000000000000000000000000000000000000000000602082015250565b7f416464726573733a20756e61626c6520746f2073656e642076616c75652c207260008201527f6563697069656e74206d61792068617665207265766572746564000000000000602082015250565b7f416464726573733a20696e73756666696369656e742062616c616e6365000000600082015250565b7f4f776e61626c653a2063616c6c6572206973206e6f7420746865206f776e6572600082015250565b50565b610ba181610a28565b8114610bac57600080fd5b50565b610bb881610a3a565b8114610bc357600080fd5b5056fea264697066735822122073b307195fd92b28f2600edbbb914776573abe0392628b3f8a5ee2d6ab956cfa64736f6c63430008010033",
  "linkReferences": {},
  "deployedLinkReferences": {}
}