{
  "_format": "hh-sol-artifact-1",
  "contractName": "NFT",
  "sourceName": "contracts/NFT.sol",
  "abi": [
    {
      "inputs": [],
      "stateMutability": "nonpayable",
      "type": "constructor"
    },
    {
      "anonymous": false,
      "inputs": [
        {
          "indexed": true,
          "internalType": "address",
          "name": "owner",
          "type": "address"
        },
        {
          "indexed": true,
          "internalType": "address",
          "name": "approved",
          "type": "address"
        },
        {
          "indexed": true,
          "internalType": "uint256",
          "name": "tokenId",
          "type": "uint256"
        }
      ],
      "name": "Approval",
      "type": "event"
    },
    {
      "anonymous": false,
      "inputs": [
        {
          "indexed": true,
          "internalType": "address",
          "name": "owner",
          "type": "address"
        },
        {
          "indexed": true,
          "internalType": "address",
          "name": "operator",
          "type": "address"
        },
        {
          "indexed": false,
          "internalType": "bool",
          "name": "approved",
          "type": "bool"
        }
      ],
      "name": "ApprovalForAll",
      "type": "event"
    },
    {
      "anonymous": false,
      "inputs": [
        {
          "indexed": true,
          "internalType": "address",
          "name": "previousOwner",
          "type": "address"
        },
        {
          "indexed": true,
          "internalType": "address",
          "name": "newOwner",
          "type": "address"
        }
      ],
      "name": "OwnershipTransferred",
      "type": "event"
    },
    {
      "anonymous": false,
      "inputs": [
        {
          "indexed": true,
          "internalType": "address",
          "name": "from",
          "type": "address"
        },
        {
          "indexed": true,
          "internalType": "address",
          "name": "to",
          "type": "address"
        },
        {
          "indexed": true,
          "internalType": "uint256",
          "name": "tokenId",
          "type": "uint256"
        }
      ],
      "name": "Transfer",
      "type": "event"
    },
    {
      "inputs": [],
      "name": "MINT_PRICE",
      "outputs": [
        {
          "internalType": "uint256",
          "name": "",
          "type": "uint256"
        }
      ],
      "stateMutability": "view",
      "type": "function"
    },
    {
      "inputs": [],
      "name": "TOTAL_SUPPLY",
      "outputs": [
        {
          "internalType": "uint256",
          "name": "",
          "type": "uint256"
        }
      ],
      "stateMutability": "view",
      "type": "function"
    },
    {
      "inputs": [
        {
          "internalType": "address",
          "name": "to",
          "type": "address"
        },
        {
          "internalType": "uint256",
          "name": "tokenId",
          "type": "uint256"
        }
      ],
      "name": "approve",
      "outputs": [],
      "stateMutability": "nonpayable",
      "type": "function"
    },
    {
      "inputs": [
        {
          "internalType": "address",
          "name": "owner",
          "type": "address"
        }
      ],
      "name": "balanceOf",
      "outputs": [
        {
          "internalType": "uint256",
          "name": "",
          "type": "uint256"
        }
      ],
      "stateMutability": "view",
      "type": "function"
    },
    {
      "inputs": [],
      "name": "baseTokenURI",
      "outputs": [
        {
          "internalType": "string",
          "name": "",
          "type": "string"
        }
      ],
      "stateMutability": "view",
      "type": "function"
    },
    {
      "inputs": [
        {
          "internalType": "uint256",
          "name": "tokenId",
          "type": "uint256"
        }
      ],
      "name": "getApproved",
      "outputs": [
        {
          "internalType": "address",
          "name": "",
          "type": "address"
        }
      ],
      "stateMutability": "view",
      "type": "function"
    },
    {
      "inputs": [],
      "name": "getBaseTokenURI",
      "outputs": [
        {
          "internalType": "string",
          "name": "",
          "type": "string"
        }
      ],
      "stateMutability": "view",
      "type": "function"
    },
    {
      "inputs": [
        {
          "internalType": "address",
          "name": "owner",
          "type": "address"
        },
        {
          "internalType": "address",
          "name": "operator",
          "type": "address"
        }
      ],
      "name": "isApprovedForAll",
      "outputs": [
        {
          "internalType": "bool",
          "name": "",
          "type": "bool"
        }
      ],
      "stateMutability": "view",
      "type": "function"
    },
    {
      "inputs": [
        {
          "internalType": "address",
          "name": "recipient",
          "type": "address"
        }
      ],
      "name": "mintTo",
      "outputs": [
        {
          "internalType": "uint256",
          "name": "",
          "type": "uint256"
        }
      ],
      "stateMutability": "payable",
      "type": "function"
    },
    {
      "inputs": [],
      "name": "name",
      "outputs": [
        {
          "internalType": "string",
          "name": "",
          "type": "string"
        }
      ],
      "stateMutability": "view",
      "type": "function"
    },
    {
      "inputs": [],
      "name": "owner",
      "outputs": [
        {
          "internalType": "address",
          "name": "",
          "type": "address"
        }
      ],
      "stateMutability": "view",
      "type": "function"
    },
    {
      "inputs": [
        {
          "internalType": "uint256",
          "name": "tokenId",
          "type": "uint256"
        }
      ],
      "name": "ownerOf",
      "outputs": [
        {
          "internalType": "address",
          "name": "",
          "type": "address"
        }
      ],
      "stateMutability": "view",
      "type": "function"
    },
    {
      "inputs": [
        {
          "internalType": "address",
          "name": "dest",
          "type": "address"
        }
      ],
      "name": "payments",
      "outputs": [
        {
          "internalType": "uint256",
          "name": "",
          "type": "uint256"
        }
      ],
      "stateMutability": "view",
      "type": "function"
    },
    {
      "inputs": [],
      "name": "renounceOwnership",
      "outputs": [],
      "stateMutability": "nonpayable",
      "type": "function"
    },
    {
      "inputs": [
        {
          "internalType": "address",
          "name": "from",
          "type": "address"
        },
        {
          "internalType": "address",
          "name": "to",
          "type": "address"
        },
        {
          "internalType": "uint256",
          "name": "tokenId",
          "type": "uint256"
        }
      ],
      "name": "safeTransferFrom",
      "outputs": [],
      "stateMutability": "nonpayable",
      "type": "function"
    },
    {
      "inputs": [
        {
          "internalType": "address",
          "name": "from",
          "type": "address"
        },
        {
          "internalType": "address",
          "name": "to",
          "type": "address"
        },
        {
          "internalType": "uint256",
          "name": "tokenId",
          "type": "uint256"
        },
        {
          "internalType": "bytes",
          "name": "_data",
          "type": "bytes"
        }
      ],
      "name": "safeTransferFrom",
      "outputs": [],
      "stateMutability": "nonpayable",
      "type": "function"
    },
    {
      "inputs": [
        {
          "internalType": "address",
          "name": "operator",
          "type": "address"
        },
        {
          "internalType": "bool",
          "name": "approved",
          "type": "bool"
        }
      ],
      "name": "setApprovalForAll",
      "outputs": [],
      "stateMutability": "nonpayable",
      "type": "function"
    },
    {
      "inputs": [
        {
          "internalType": "string",
          "name": "_baseTokenURI",
          "type": "string"
        }
      ],
      "name": "setBaseTokenURI",
      "outputs": [],
      "stateMutability": "nonpayable",
      "type": "function"
    },
    {
      "inputs": [
        {
          "internalType": "bytes4",
          "name": "interfaceId",
          "type": "bytes4"
        }
      ],
      "name": "supportsInterface",
      "outputs": [
        {
          "internalType": "bool",
          "name": "",
          "type": "bool"
        }
      ],
      "stateMutability": "view",
      "type": "function"
    },
    {
      "inputs": [],
      "name": "symbol",
      "outputs": [
        {
          "internalType": "string",
          "name": "",
          "type": "string"
        }
      ],
      "stateMutability": "view",
      "type": "function"
    },
    {
      "inputs": [
        {
          "internalType": "uint256",
          "name": "tokenId",
          "type": "uint256"
        }
      ],
      "name": "tokenURI",
      "outputs": [
        {
          "internalType": "string",
          "name": "",
          "type": "string"
        }
      ],
      "stateMutability": "view",
      "type": "function"
    },
    {
      "inputs": [
        {
          "internalType": "address",
          "name": "from",
          "type": "address"
        },
        {
          "internalType": "address",
          "name": "to",
          "type": "address"
        },
        {
          "internalType": "uint256",
          "name": "tokenId",
          "type": "uint256"
        }
      ],
      "name": "transferFrom",
      "outputs": [],
      "stateMutability": "nonpayable",
      "type": "function"
    },
    {
      "inputs": [
        {
          "internalType": "address",
          "name": "newOwner",
          "type": "address"
        }
      ],
      "name": "transferOwnership",
      "outputs": [],
      "stateMutability": "nonpayable",
      "type": "function"
    },
    {
      "inputs": [
        {
          "internalType": "address payable",
          "name": "payee",
          "type": "address"
        }
      ],
      "name": "withdrawPayments",
      "outputs": [],
      "stateMutability": "nonpayable",
      "type": "function"
    }
  ],
  "bytecode": "0x60a06040523480156200001157600080fd5b506040518060400160405280600581526020017f54544e46540000000000000000000000000000000000000000000000000000008152506040518060400160405280600381526020017f4e4654000000000000000000000000000000000000000000000000000000000081525081600090805190602001906200009692919062000230565b508060019080519060200190620000af92919062000230565b505050604051620000c090620002c1565b604051809103906000f080158015620000dd573d6000803e3d6000fd5b5073ffffffffffffffffffffffffffffffffffffffff1660808173ffffffffffffffffffffffffffffffffffffffff1660601b8152505062000134620001286200016260201b60201c565b6200016a60201b60201c565b60405180602001604052806000815250600890805190602001906200015b92919062000230565b5062000353565b600033905090565b6000600660009054906101000a900473ffffffffffffffffffffffffffffffffffffffff16905081600660006101000a81548173ffffffffffffffffffffffffffffffffffffffff021916908373ffffffffffffffffffffffffffffffffffffffff1602179055508173ffffffffffffffffffffffffffffffffffffffff168173ffffffffffffffffffffffffffffffffffffffff167f8be0079c531659141344cd1fd0a4f28419497f9722a3daafe3b4186f6b6457e060405160405180910390a35050565b8280546200023e90620002ee565b90600052602060002090601f016020900481019282620002625760008555620002ae565b82601f106200027d57805160ff1916838001178555620002ae565b82800160010185558215620002ae579182015b82811115620002ad57825182559160200191906001019062000290565b5b509050620002bd9190620002cf565b5090565b610d09806200383283390190565b5b80821115620002ea576000816000905550600101620002d0565b5090565b600060028204905060018216806200030757607f821691505b602082108114156200031e576200031d62000324565b5b50919050565b7f4e487b7100000000000000000000000000000000000000000000000000000000600052602260045260246000fd5b60805160601c6134b96200037960003960008181610fe001526116f801526134b96000f3fe60806040526004361061014b5760003560e01c80638da5cb5b116100b6578063c002d23d1161006f578063c002d23d14610481578063c87b56dd146104ac578063d547cfb7146104e9578063e2982c2114610514578063e985e9c514610551578063f2fde38b1461058e5761014b565b80638da5cb5b14610383578063902d55a5146103ae57806395d89b41146103d9578063a22cb46514610404578063b88d4fde1461042d578063bdc32be0146104565761014b565b806331b3eb941161010857806331b3eb941461027057806342842e0e146102995780636352211e146102c257806370a08231146102ff578063715018a61461033c578063755edd17146103535761014b565b806301ffc9a71461015057806306fdde031461018d578063081812fc146101b8578063095ea7b3146101f557806323b872dd1461021e57806330176e1314610247575b600080fd5b34801561015c57600080fd5b5061017760048036038101906101729190612463565b6105b7565b6040516101849190612920565b60405180910390f35b34801561019957600080fd5b506101a2610699565b6040516101af919061293b565b60405180910390f35b3480156101c457600080fd5b506101df60048036038101906101da91906124f6565b61072b565b6040516101ec919061289e565b60405180910390f35b34801561020157600080fd5b5061021c60048036038101906102179190612427565b6107b0565b005b34801561022a57600080fd5b5061024560048036038101906102409190612321565b6108c8565b005b34801561025357600080fd5b5061026e600480360381019061026991906124b5565b610928565b005b34801561027c57600080fd5b50610297600480360381019061029291906122bc565b6109be565b005b3480156102a557600080fd5b506102c060048036038101906102bb9190612321565b610a46565b005b3480156102ce57600080fd5b506102e960048036038101906102e491906124f6565b610a66565b6040516102f6919061289e565b60405180910390f35b34801561030b57600080fd5b5061032660048036038101906103219190612293565b610b18565b6040516103339190612b7d565b60405180910390f35b34801561034857600080fd5b50610351610bd0565b005b61036d60048036038101906103689190612293565b610c58565b60405161037a9190612b7d565b60405180910390f35b34801561038f57600080fd5b50610398610cd7565b6040516103a5919061289e565b60405180910390f35b3480156103ba57600080fd5b506103c3610d01565b6040516103d09190612b7d565b60405180910390f35b3480156103e557600080fd5b506103ee610d07565b6040516103fb919061293b565b60405180910390f35b34801561041057600080fd5b5061042b600480360381019061042691906123eb565b610d99565b005b34801561043957600080fd5b50610454600480360381019061044f9190612370565b610daf565b005b34801561046257600080fd5b5061046b610e11565b604051610478919061293b565b60405180910390f35b34801561048d57600080fd5b50610496610e9c565b6040516104a39190612b7d565b60405180910390f35b3480156104b857600080fd5b506104d360048036038101906104ce91906124f6565b610ea7565b6040516104e0919061293b565b60405180910390f35b3480156104f557600080fd5b506104fe610f4e565b60405161050b919061293b565b60405180910390f35b34801561052057600080fd5b5061053b60048036038101906105369190612293565b610fdc565b6040516105489190612b7d565b60405180910390f35b34801561055d57600080fd5b50610578600480360381019061057391906122e5565b61108e565b6040516105859190612920565b60405180910390f35b34801561059a57600080fd5b506105b560048036038101906105b09190612293565b611122565b005b60007f80ac58cd000000000000000000000000000000000000000000000000000000007bffffffffffffffffffffffffffffffffffffffffffffffffffffffff1916827bffffffffffffffffffffffffffffffffffffffffffffffffffffffff1916148061068257507f5b5e139f000000000000000000000000000000000000000000000000000000007bffffffffffffffffffffffffffffffffffffffffffffffffffffffff1916827bffffffffffffffffffffffffffffffffffffffffffffffffffffffff1916145b8061069257506106918261121a565b5b9050919050565b6060600080546106a890612de5565b80601f01602080910402602001604051908101604052809291908181526020018280546106d490612de5565b80156107215780601f106106f657610100808354040283529160200191610721565b820191906000526020600020905b81548152906001019060200180831161070457829003601f168201915b5050505050905090565b600061073682611284565b610775576040517f08c379a000000000000000000000000000000000000000000000000000000000815260040161076c90612abd565b60405180910390fd5b6004600083815260200190815260200160002060009054906101000a900473ffffffffffffffffffffffffffffffffffffffff169050919050565b60006107bb82610a66565b90508073ffffffffffffffffffffffffffffffffffffffff168373ffffffffffffffffffffffffffffffffffffffff16141561082c576040517f08c379a000000000000000000000000000000000000000000000000000000000815260040161082390612b1d565b60405180910390fd5b8073ffffffffffffffffffffffffffffffffffffffff1661084b6112f0565b73ffffffffffffffffffffffffffffffffffffffff16148061087a5750610879816108746112f0565b61108e565b5b6108b9576040517f08c379a00000000000000000000000000000000000000000000000000000000081526004016108b090612a3d565b60405180910390fd5b6108c383836112f8565b505050565b6108d96108d36112f0565b826113b1565b610918576040517f08c379a000000000000000000000000000000000000000000000000000000000815260040161090f90612b3d565b60405180910390fd5b61092383838361148f565b505050565b6109306112f0565b73ffffffffffffffffffffffffffffffffffffffff1661094e610cd7565b73ffffffffffffffffffffffffffffffffffffffff16146109a4576040517f08c379a000000000000000000000000000000000000000000000000000000000815260040161099b90612add565b60405180910390fd5b80600890805190602001906109ba92919061208d565b5050565b6109c66112f0565b73ffffffffffffffffffffffffffffffffffffffff166109e4610cd7565b73ffffffffffffffffffffffffffffffffffffffff1614610a3a576040517f08c379a0000000000000000000000000000000000000000000000000000000008152600401610a3190612add565b60405180910390fd5b610a43816116f6565b50565b610a6183838360405180602001604052806000815250610daf565b505050565b6000806002600084815260200190815260200160002060009054906101000a900473ffffffffffffffffffffffffffffffffffffffff169050600073ffffffffffffffffffffffffffffffffffffffff168173ffffffffffffffffffffffffffffffffffffffff161415610b0f576040517f08c379a0000000000000000000000000000000000000000000000000000000008152600401610b0690612a7d565b60405180910390fd5b80915050919050565b60008073ffffffffffffffffffffffffffffffffffffffff168273ffffffffffffffffffffffffffffffffffffffff161415610b89576040517f08c379a0000000000000000000000000000000000000000000000000000000008152600401610b8090612a5d565b60405180910390fd5b600360008373ffffffffffffffffffffffffffffffffffffffff1673ffffffffffffffffffffffffffffffffffffffff168152602001908152602001600020549050919050565b610bd86112f0565b73ffffffffffffffffffffffffffffffffffffffff16610bf6610cd7565b73ffffffffffffffffffffffffffffffffffffffff1614610c4c576040517f08c379a0000000000000000000000000000000000000000000000000000000008152600401610c4390612add565b60405180910390fd5b610c566000611784565b565b600080610c65600761184a565b90506127108110610cab576040517f08c379a0000000000000000000000000000000000000000000000000000000008152600401610ca290612b5d565b60405180910390fd5b610cb56007611858565b6000610cc1600761184a565b9050610ccd848261186e565b8092505050919050565b6000600660009054906101000a900473ffffffffffffffffffffffffffffffffffffffff16905090565b61271081565b606060018054610d1690612de5565b80601f0160208091040260200160405190810160405280929190818152602001828054610d4290612de5565b8015610d8f5780601f10610d6457610100808354040283529160200191610d8f565b820191906000526020600020905b815481529060010190602001808311610d7257829003601f168201915b5050505050905090565b610dab610da46112f0565b838361188c565b5050565b610dc0610dba6112f0565b836113b1565b610dff576040517f08c379a0000000000000000000000000000000000000000000000000000000008152600401610df690612b3d565b60405180910390fd5b610e0b848484846119f9565b50505050565b6060610e1b6112f0565b73ffffffffffffffffffffffffffffffffffffffff16610e39610cd7565b73ffffffffffffffffffffffffffffffffffffffff1614610e8f576040517f08c379a0000000000000000000000000000000000000000000000000000000008152600401610e8690612add565b60405180910390fd5b610e97611a55565b905090565b66038d7ea4c6800081565b6060610eb282611284565b610ef1576040517f08c379a0000000000000000000000000000000000000000000000000000000008152600401610ee890612afd565b60405180910390fd5b6000610efb611a55565b90506000815111610f1b5760405180602001604052806000815250610f46565b80610f2584611ae7565b604051602001610f3692919061287a565b6040516020818303038152906040525b915050919050565b60088054610f5b90612de5565b80601f0160208091040260200160405190810160405280929190818152602001828054610f8790612de5565b8015610fd45780601f10610fa957610100808354040283529160200191610fd4565b820191906000526020600020905b815481529060010190602001808311610fb757829003601f168201915b505050505081565b60007f000000000000000000000000000000000000000000000000000000000000000073ffffffffffffffffffffffffffffffffffffffff1663e3a9db1a836040518263ffffffff1660e01b8152600401611037919061289e565b60206040518083038186803b15801561104f57600080fd5b505afa158015611063573d6000803e3d6000fd5b505050506040513d601f19601f82011682018060405250810190611087919061251f565b9050919050565b6000600560008473ffffffffffffffffffffffffffffffffffffffff1673ffffffffffffffffffffffffffffffffffffffff16815260200190815260200160002060008373ffffffffffffffffffffffffffffffffffffffff1673ffffffffffffffffffffffffffffffffffffffff16815260200190815260200160002060009054906101000a900460ff16905092915050565b61112a6112f0565b73ffffffffffffffffffffffffffffffffffffffff16611148610cd7565b73ffffffffffffffffffffffffffffffffffffffff161461119e576040517f08c379a000000000000000000000000000000000000000000000000000000000815260040161119590612add565b60405180910390fd5b600073ffffffffffffffffffffffffffffffffffffffff168173ffffffffffffffffffffffffffffffffffffffff16141561120e576040517f08c379a00000000000000000000000000000000000000000000000000000000081526004016112059061297d565b60405180910390fd5b61121781611784565b50565b60007f01ffc9a7000000000000000000000000000000000000000000000000000000007bffffffffffffffffffffffffffffffffffffffffffffffffffffffff1916827bffffffffffffffffffffffffffffffffffffffffffffffffffffffff1916149050919050565b60008073ffffffffffffffffffffffffffffffffffffffff166002600084815260200190815260200160002060009054906101000a900473ffffffffffffffffffffffffffffffffffffffff1673ffffffffffffffffffffffffffffffffffffffff1614159050919050565b600033905090565b816004600083815260200190815260200160002060006101000a81548173ffffffffffffffffffffffffffffffffffffffff021916908373ffffffffffffffffffffffffffffffffffffffff160217905550808273ffffffffffffffffffffffffffffffffffffffff1661136b83610a66565b73ffffffffffffffffffffffffffffffffffffffff167f8c5be1e5ebec7d5bd14f71427d1e84f3dd0314c0f7b2291e5b200ac8c7c3b92560405160405180910390a45050565b60006113bc82611284565b6113fb576040517f08c379a00000000000000000000000000000000000000000000000000000000081526004016113f290612a1d565b60405180910390fd5b600061140683610a66565b90508073ffffffffffffffffffffffffffffffffffffffff168473ffffffffffffffffffffffffffffffffffffffff16148061147557508373ffffffffffffffffffffffffffffffffffffffff1661145d8461072b565b73ffffffffffffffffffffffffffffffffffffffff16145b806114865750611485818561108e565b5b91505092915050565b8273ffffffffffffffffffffffffffffffffffffffff166114af82610a66565b73ffffffffffffffffffffffffffffffffffffffff1614611505576040517f08c379a00000000000000000000000000000000000000000000000000000000081526004016114fc9061299d565b60405180910390fd5b600073ffffffffffffffffffffffffffffffffffffffff168273ffffffffffffffffffffffffffffffffffffffff161415611575576040517f08c379a000000000000000000000000000000000000000000000000000000000815260040161156c906129dd565b60405180910390fd5b611580838383611c94565b61158b6000826112f8565b6001600360008573ffffffffffffffffffffffffffffffffffffffff1673ffffffffffffffffffffffffffffffffffffffff16815260200190815260200160002060008282546115db9190612ce9565b925050819055506001600360008473ffffffffffffffffffffffffffffffffffffffff1673ffffffffffffffffffffffffffffffffffffffff16815260200190815260200160002060008282546116329190612c62565b92505081905550816002600083815260200190815260200160002060006101000a81548173ffffffffffffffffffffffffffffffffffffffff021916908373ffffffffffffffffffffffffffffffffffffffff160217905550808273ffffffffffffffffffffffffffffffffffffffff168473ffffffffffffffffffffffffffffffffffffffff167fddf252ad1be2c89b69c2b068fc378daa952ba7f163c4a11628f55a4df523b3ef60405160405180910390a46116f1838383611c99565b505050565b7f000000000000000000000000000000000000000000000000000000000000000073ffffffffffffffffffffffffffffffffffffffff166351cff8d9826040518263ffffffff1660e01b815260040161174f91906128b9565b600060405180830381600087803b15801561176957600080fd5b505af115801561177d573d6000803e3d6000fd5b5050505050565b6000600660009054906101000a900473ffffffffffffffffffffffffffffffffffffffff16905081600660006101000a81548173ffffffffffffffffffffffffffffffffffffffff021916908373ffffffffffffffffffffffffffffffffffffffff1602179055508173ffffffffffffffffffffffffffffffffffffffff168173ffffffffffffffffffffffffffffffffffffffff167f8be0079c531659141344cd1fd0a4f28419497f9722a3daafe3b4186f6b6457e060405160405180910390a35050565b600081600001549050919050565b6001816000016000828254019250508190555050565b611888828260405180602001604052806000815250611c9e565b5050565b8173ffffffffffffffffffffffffffffffffffffffff168373ffffffffffffffffffffffffffffffffffffffff1614156118fb576040517f08c379a00000000000000000000000000000000000000000000000000000000081526004016118f2906129fd565b60405180910390fd5b80600560008573ffffffffffffffffffffffffffffffffffffffff1673ffffffffffffffffffffffffffffffffffffffff16815260200190815260200160002060008473ffffffffffffffffffffffffffffffffffffffff1673ffffffffffffffffffffffffffffffffffffffff16815260200190815260200160002060006101000a81548160ff0219169083151502179055508173ffffffffffffffffffffffffffffffffffffffff168373ffffffffffffffffffffffffffffffffffffffff167f17307eab39ab6107e8899845ad3d59bd9653f200f220920489ca2b5937696c31836040516119ec9190612920565b60405180910390a3505050565b611a0484848461148f565b611a1084848484611cf9565b611a4f576040517f08c379a0000000000000000000000000000000000000000000000000000000008152600401611a469061295d565b60405180910390fd5b50505050565b606060088054611a6490612de5565b80601f0160208091040260200160405190810160405280929190818152602001828054611a9090612de5565b8015611add5780601f10611ab257610100808354040283529160200191611add565b820191906000526020600020905b815481529060010190602001808311611ac057829003601f168201915b5050505050905090565b60606000821415611b2f576040518060400160405280600181526020017f30000000000000000000000000000000000000000000000000000000000000008152509050611c8f565b600082905060005b60008214611b61578080611b4a90612e48565b915050600a82611b5a9190612cb8565b9150611b37565b60008167ffffffffffffffff811115611ba3577f4e487b7100000000000000000000000000000000000000000000000000000000600052604160045260246000fd5b6040519080825280601f01601f191660200182016040528015611bd55781602001600182028036833780820191505090505b5090505b60008514611c8857600182611bee9190612ce9565b9150600a85611bfd9190612e91565b6030611c099190612c62565b60f81b818381518110611c45577f4e487b7100000000000000000000000000000000000000000000000000000000600052603260045260246000fd5b60200101907effffffffffffffffffffffffffffffffffffffffffffffffffffffffffffff1916908160001a905350600a85611c819190612cb8565b9450611bd9565b8093505050505b919050565b505050565b505050565b611ca88383611e90565b611cb56000848484611cf9565b611cf4576040517f08c379a0000000000000000000000000000000000000000000000000000000008152600401611ceb9061295d565b60405180910390fd5b505050565b6000611d1a8473ffffffffffffffffffffffffffffffffffffffff1661206a565b15611e83578373ffffffffffffffffffffffffffffffffffffffff1663150b7a02611d436112f0565b8786866040518563ffffffff1660e01b8152600401611d6594939291906128d4565b602060405180830381600087803b158015611d7f57600080fd5b505af1925050508015611db057506040513d601f19601f82011682018060405250810190611dad919061248c565b60015b611e33573d8060008114611de0576040519150601f19603f3d011682016040523d82523d6000602084013e611de5565b606091505b50600081511415611e2b576040517f08c379a0000000000000000000000000000000000000000000000000000000008152600401611e229061295d565b60405180910390fd5b805181602001fd5b63150b7a0260e01b7bffffffffffffffffffffffffffffffffffffffffffffffffffffffff1916817bffffffffffffffffffffffffffffffffffffffffffffffffffffffff191614915050611e88565b600190505b949350505050565b600073ffffffffffffffffffffffffffffffffffffffff168273ffffffffffffffffffffffffffffffffffffffff161415611f00576040517f08c379a0000000000000000000000000000000000000000000000000000000008152600401611ef790612a9d565b60405180910390fd5b611f0981611284565b15611f49576040517f08c379a0000000000000000000000000000000000000000000000000000000008152600401611f40906129bd565b60405180910390fd5b611f5560008383611c94565b6001600360008473ffffffffffffffffffffffffffffffffffffffff1673ffffffffffffffffffffffffffffffffffffffff1681526020019081526020016000206000828254611fa59190612c62565b92505081905550816002600083815260200190815260200160002060006101000a81548173ffffffffffffffffffffffffffffffffffffffff021916908373ffffffffffffffffffffffffffffffffffffffff160217905550808273ffffffffffffffffffffffffffffffffffffffff16600073ffffffffffffffffffffffffffffffffffffffff167fddf252ad1be2c89b69c2b068fc378daa952ba7f163c4a11628f55a4df523b3ef60405160405180910390a461206660008383611c99565b5050565b6000808273ffffffffffffffffffffffffffffffffffffffff163b119050919050565b82805461209990612de5565b90600052602060002090601f0160209004810192826120bb5760008555612102565b82601f106120d457805160ff1916838001178555612102565b82800160010185558215612102579182015b828111156121015782518255916020019190600101906120e6565b5b50905061210f9190612113565b5090565b5b8082111561212c576000816000905550600101612114565b5090565b600061214361213e84612bbd565b612b98565b90508281526020810184848401111561215b57600080fd5b612166848285612da3565b509392505050565b600061218161217c84612bee565b612b98565b90508281526020810184848401111561219957600080fd5b6121a4848285612da3565b509392505050565b6000813590506121bb81613410565b92915050565b6000813590506121d081613427565b92915050565b6000813590506121e58161343e565b92915050565b6000813590506121fa81613455565b92915050565b60008151905061220f81613455565b92915050565b600082601f83011261222657600080fd5b8135612236848260208601612130565b91505092915050565b600082601f83011261225057600080fd5b813561226084826020860161216e565b91505092915050565b6000813590506122788161346c565b92915050565b60008151905061228d8161346c565b92915050565b6000602082840312156122a557600080fd5b60006122b3848285016121ac565b91505092915050565b6000602082840312156122ce57600080fd5b60006122dc848285016121c1565b91505092915050565b600080604083850312156122f857600080fd5b6000612306858286016121ac565b9250506020612317858286016121ac565b9150509250929050565b60008060006060848603121561233657600080fd5b6000612344868287016121ac565b9350506020612355868287016121ac565b925050604061236686828701612269565b9150509250925092565b6000806000806080858703121561238657600080fd5b6000612394878288016121ac565b94505060206123a5878288016121ac565b93505060406123b687828801612269565b925050606085013567ffffffffffffffff8111156123d357600080fd5b6123df87828801612215565b91505092959194509250565b600080604083850312156123fe57600080fd5b600061240c858286016121ac565b925050602061241d858286016121d6565b9150509250929050565b6000806040838503121561243a57600080fd5b6000612448858286016121ac565b925050602061245985828601612269565b9150509250929050565b60006020828403121561247557600080fd5b6000612483848285016121eb565b91505092915050565b60006020828403121561249e57600080fd5b60006124ac84828501612200565b91505092915050565b6000602082840312156124c757600080fd5b600082013567ffffffffffffffff8111156124e157600080fd5b6124ed8482850161223f565b91505092915050565b60006020828403121561250857600080fd5b600061251684828501612269565b91505092915050565b60006020828403121561253157600080fd5b600061253f8482850161227e565b91505092915050565b61255181612d2f565b82525050565b61256081612d1d565b82525050565b61256f81612d41565b82525050565b600061258082612c1f565b61258a8185612c35565b935061259a818560208601612db2565b6125a381612f7e565b840191505092915050565b60006125b982612c2a565b6125c38185612c46565b93506125d3818560208601612db2565b6125dc81612f7e565b840191505092915050565b60006125f282612c2a565b6125fc8185612c57565b935061260c818560208601612db2565b80840191505092915050565b6000612625603283612c46565b915061263082612f8f565b604082019050919050565b6000612648602683612c46565b915061265382612fde565b604082019050919050565b600061266b602583612c46565b91506126768261302d565b604082019050919050565b600061268e601c83612c46565b91506126998261307c565b602082019050919050565b60006126b1602483612c46565b91506126bc826130a5565b604082019050919050565b60006126d4601983612c46565b91506126df826130f4565b602082019050919050565b60006126f7602c83612c46565b91506127028261311d565b604082019050919050565b600061271a603883612c46565b91506127258261316c565b604082019050919050565b600061273d602a83612c46565b9150612748826131bb565b604082019050919050565b6000612760602983612c46565b915061276b8261320a565b604082019050919050565b6000612783602083612c46565b915061278e82613259565b602082019050919050565b60006127a6602c83612c46565b91506127b182613282565b604082019050919050565b60006127c9602083612c46565b91506127d4826132d1565b602082019050919050565b60006127ec602f83612c46565b91506127f7826132fa565b604082019050919050565b600061280f602183612c46565b915061281a82613349565b604082019050919050565b6000612832603183612c46565b915061283d82613398565b604082019050919050565b6000612855601283612c46565b9150612860826133e7565b602082019050919050565b61287481612d99565b82525050565b600061288682856125e7565b915061289282846125e7565b91508190509392505050565b60006020820190506128b36000830184612557565b92915050565b60006020820190506128ce6000830184612548565b92915050565b60006080820190506128e96000830187612557565b6128f66020830186612557565b612903604083018561286b565b81810360608301526129158184612575565b905095945050505050565b60006020820190506129356000830184612566565b92915050565b6000602082019050818103600083015261295581846125ae565b905092915050565b6000602082019050818103600083015261297681612618565b9050919050565b600060208201905081810360008301526129968161263b565b9050919050565b600060208201905081810360008301526129b68161265e565b9050919050565b600060208201905081810360008301526129d681612681565b9050919050565b600060208201905081810360008301526129f6816126a4565b9050919050565b60006020820190508181036000830152612a16816126c7565b9050919050565b60006020820190508181036000830152612a36816126ea565b9050919050565b60006020820190508181036000830152612a568161270d565b9050919050565b60006020820190508181036000830152612a7681612730565b9050919050565b60006020820190508181036000830152612a9681612753565b9050919050565b60006020820190508181036000830152612ab681612776565b9050919050565b60006020820190508181036000830152612ad681612799565b9050919050565b60006020820190508181036000830152612af6816127bc565b9050919050565b60006020820190508181036000830152612b16816127df565b9050919050565b60006020820190508181036000830152612b3681612802565b9050919050565b60006020820190508181036000830152612b5681612825565b9050919050565b60006020820190508181036000830152612b7681612848565b9050919050565b6000602082019050612b92600083018461286b565b92915050565b6000612ba2612bb3565b9050612bae8282612e17565b919050565b6000604051905090565b600067ffffffffffffffff821115612bd857612bd7612f4f565b5b612be182612f7e565b9050602081019050919050565b600067ffffffffffffffff821115612c0957612c08612f4f565b5b612c1282612f7e565b9050602081019050919050565b600081519050919050565b600081519050919050565b600082825260208201905092915050565b600082825260208201905092915050565b600081905092915050565b6000612c6d82612d99565b9150612c7883612d99565b9250827fffffffffffffffffffffffffffffffffffffffffffffffffffffffffffffffff03821115612cad57612cac612ec2565b5b828201905092915050565b6000612cc382612d99565b9150612cce83612d99565b925082612cde57612cdd612ef1565b5b828204905092915050565b6000612cf482612d99565b9150612cff83612d99565b925082821015612d1257612d11612ec2565b5b828203905092915050565b6000612d2882612d79565b9050919050565b6000612d3a82612d79565b9050919050565b60008115159050919050565b60007fffffffff0000000000000000000000000000000000000000000000000000000082169050919050565b600073ffffffffffffffffffffffffffffffffffffffff82169050919050565b6000819050919050565b82818337600083830152505050565b60005b83811015612dd0578082015181840152602081019050612db5565b83811115612ddf576000848401525b50505050565b60006002820490506001821680612dfd57607f821691505b60208210811415612e1157612e10612f20565b5b50919050565b612e2082612f7e565b810181811067ffffffffffffffff82111715612e3f57612e3e612f4f565b5b80604052505050565b6000612e5382612d99565b91507fffffffffffffffffffffffffffffffffffffffffffffffffffffffffffffffff821415612e8657612e85612ec2565b5b600182019050919050565b6000612e9c82612d99565b9150612ea783612d99565b925082612eb757612eb6612ef1565b5b828206905092915050565b7f4e487b7100000000000000000000000000000000000000000000000000000000600052601160045260246000fd5b7f4e487b7100000000000000000000000000000000000000000000000000000000600052601260045260246000fd5b7f4e487b7100000000000000000000000000000000000000000000000000000000600052602260045260246000fd5b7f4e487b7100000000000000000000000000000000000000000000000000000000600052604160045260246000fd5b6000601f19601f8301169050919050565b7f4552433732313a207472616e7366657220746f206e6f6e20455243373231526560008201527f63656976657220696d706c656d656e7465720000000000000000000000000000602082015250565b7f4f776e61626c653a206e6577206f776e657220697320746865207a65726f206160008201527f6464726573730000000000000000000000000000000000000000000000000000602082015250565b7f4552433732313a207472616e736665722066726f6d20696e636f72726563742060008201527f6f776e6572000000000000000000000000000000000000000000000000000000602082015250565b7f4552433732313a20746f6b656e20616c7265616479206d696e74656400000000600082015250565b7f4552433732313a207472616e7366657220746f20746865207a65726f2061646460008201527f7265737300000000000000000000000000000000000000000000000000000000602082015250565b7f4552433732313a20617070726f766520746f2063616c6c657200000000000000600082015250565b7f4552433732313a206f70657261746f7220717565727920666f72206e6f6e657860008201527f697374656e7420746f6b656e0000000000000000000000000000000000000000602082015250565b7f4552433732313a20617070726f76652063616c6c6572206973206e6f74206f7760008201527f6e6572206e6f7220617070726f76656420666f7220616c6c0000000000000000602082015250565b7f4552433732313a2062616c616e636520717565727920666f7220746865207a6560008201527f726f206164647265737300000000000000000000000000000000000000000000602082015250565b7f4552433732313a206f776e657220717565727920666f72206e6f6e657869737460008201527f656e7420746f6b656e0000000000000000000000000000000000000000000000602082015250565b7f4552433732313a206d696e7420746f20746865207a65726f2061646472657373600082015250565b7f4552433732313a20617070726f76656420717565727920666f72206e6f6e657860008201527f697374656e7420746f6b656e0000000000000000000000000000000000000000602082015250565b7f4f776e61626c653a2063616c6c6572206973206e6f7420746865206f776e6572600082015250565b7f4552433732314d657461646174613a2055524920717565727920666f72206e6f60008201527f6e6578697374656e7420746f6b656e0000000000000000000000000000000000602082015250565b7f4552433732313a20617070726f76616c20746f2063757272656e74206f776e6560008201527f7200000000000000000000000000000000000000000000000000000000000000602082015250565b7f4552433732313a207472616e736665722063616c6c6572206973206e6f74206f60008201527f776e6572206e6f7220617070726f766564000000000000000000000000000000602082015250565b7f4d617820737570706c7920726561636865640000000000000000000000000000600082015250565b61341981612d1d565b811461342457600080fd5b50565b61343081612d2f565b811461343b57600080fd5b50565b61344781612d41565b811461345257600080fd5b50565b61345e81612d4d565b811461346957600080fd5b50565b61347581612d99565b811461348057600080fd5b5056fea2646970667358221220515f973d4351efe7e9e7ac53223fcf2f615a9dba19522a2de5999a00d674da8c64736f6c63430008010033608060405234801561001057600080fd5b5061002d61002261003260201b60201c565b61003a60201b60201c565b6100fe565b600033905090565b60008060009054906101000a900473ffffffffffffffffffffffffffffffffffffffff169050816000806101000a81548173ffffffffffffffffffffffffffffffffffffffff021916908373ffffffffffffffffffffffffffffffffffffffff1602179055508173ffffffffffffffffffffffffffffffffffffffff168173ffffffffffffffffffffffffffffffffffffffff167f8be0079c531659141344cd1fd0a4f28419497f9722a3daafe3b4186f6b6457e060405160405180910390a35050565b610bfc8061010d6000396000f3fe6080604052600436106100555760003560e01c806351cff8d91461005a578063715018a6146100835780638da5cb5b1461009a578063e3a9db1a146100c5578063f2fde38b14610102578063f340fa011461012b575b600080fd5b34801561006657600080fd5b50610081600480360381019061007c91906107f5565b610147565b005b34801561008f57600080fd5b506100986102c7565b005b3480156100a657600080fd5b506100af61034f565b6040516100bc9190610900565b60405180910390f35b3480156100d157600080fd5b506100ec60048036038101906100e791906107cc565b610378565b6040516100f9919061099b565b60405180910390f35b34801561010e57600080fd5b50610129600480360381019061012491906107cc565b6103c1565b005b610145600480360381019061014091906107cc565b6104b9565b005b61014f6105e2565b73ffffffffffffffffffffffffffffffffffffffff1661016d61034f565b73ffffffffffffffffffffffffffffffffffffffff16146101c3576040517f08c379a00000000000000000000000000000000000000000000000000000000081526004016101ba9061097b565b60405180910390fd5b6000600160008373ffffffffffffffffffffffffffffffffffffffff1673ffffffffffffffffffffffffffffffffffffffff1681526020019081526020016000205490506000600160008473ffffffffffffffffffffffffffffffffffffffff1673ffffffffffffffffffffffffffffffffffffffff16815260200190815260200160002081905550610275818373ffffffffffffffffffffffffffffffffffffffff166105ea90919063ffffffff16565b8173ffffffffffffffffffffffffffffffffffffffff167f7084f5476618d8e60b11ef0d7d3f06914655adb8793e28ff7f018d4c76d505d5826040516102bb919061099b565b60405180910390a25050565b6102cf6105e2565b73ffffffffffffffffffffffffffffffffffffffff166102ed61034f565b73ffffffffffffffffffffffffffffffffffffffff1614610343576040517f08c379a000000000000000000000000000000000000000000000000000000000815260040161033a9061097b565b60405180910390fd5b61034d60006106de565b565b60008060009054906101000a900473ffffffffffffffffffffffffffffffffffffffff16905090565b6000600160008373ffffffffffffffffffffffffffffffffffffffff1673ffffffffffffffffffffffffffffffffffffffff168152602001908152602001600020549050919050565b6103c96105e2565b73ffffffffffffffffffffffffffffffffffffffff166103e761034f565b73ffffffffffffffffffffffffffffffffffffffff161461043d576040517f08c379a00000000000000000000000000000000000000000000000000000000081526004016104349061097b565b60405180910390fd5b600073ffffffffffffffffffffffffffffffffffffffff168173ffffffffffffffffffffffffffffffffffffffff1614156104ad576040517f08c379a00000000000000000000000000000000000000000000000000000000081526004016104a49061091b565b60405180910390fd5b6104b6816106de565b50565b6104c16105e2565b73ffffffffffffffffffffffffffffffffffffffff166104df61034f565b73ffffffffffffffffffffffffffffffffffffffff1614610535576040517f08c379a000000000000000000000000000000000000000000000000000000000815260040161052c9061097b565b60405180910390fd5b600034905080600160008473ffffffffffffffffffffffffffffffffffffffff1673ffffffffffffffffffffffffffffffffffffffff168152602001908152602001600020600082825461058991906109d2565b925050819055508173ffffffffffffffffffffffffffffffffffffffff167f2da466a7b24304f47e87fa2e1e5a81b9831ce54fec19055ce277ca2f39ba42c4826040516105d6919061099b565b60405180910390a25050565b600033905090565b8047101561062d576040517f08c379a00000000000000000000000000000000000000000000000000000000081526004016106249061095b565b60405180910390fd5b60008273ffffffffffffffffffffffffffffffffffffffff1682604051610653906108eb565b60006040518083038185875af1925050503d8060008114610690576040519150601f19603f3d011682016040523d82523d6000602084013e610695565b606091505b50509050806106d9576040517f08c379a00000000000000000000000000000000000000000000000000000000081526004016106d09061093b565b60405180910390fd5b505050565b60008060009054906101000a900473ffffffffffffffffffffffffffffffffffffffff169050816000806101000a81548173ffffffffffffffffffffffffffffffffffffffff021916908373ffffffffffffffffffffffffffffffffffffffff1602179055508173ffffffffffffffffffffffffffffffffffffffff168173ffffffffffffffffffffffffffffffffffffffff167f8be0079c531659141344cd1fd0a4f28419497f9722a3daafe3b4186f6b6457e060405160405180910390a35050565b6000813590506107b181610b98565b92915050565b6000813590506107c681610baf565b92915050565b6000602082840312156107de57600080fd5b60006107ec848285016107a2565b91505092915050565b60006020828403121561080757600080fd5b6000610815848285016107b7565b91505092915050565b61082781610a28565b82525050565b600061083a6026836109c1565b915061084582610aa5565b604082019050919050565b600061085d603a836109c1565b915061086882610af4565b604082019050919050565b6000610880601d836109c1565b915061088b82610b43565b602082019050919050565b60006108a36020836109c1565b91506108ae82610b6c565b602082019050919050565b60006108c66000836109b6565b91506108d182610b95565b600082019050919050565b6108e581610a6c565b82525050565b60006108f6826108b9565b9150819050919050565b6000602082019050610915600083018461081e565b92915050565b600060208201905081810360008301526109348161082d565b9050919050565b6000602082019050818103600083015261095481610850565b9050919050565b6000602082019050818103600083015261097481610873565b9050919050565b6000602082019050818103600083015261099481610896565b9050919050565b60006020820190506109b060008301846108dc565b92915050565b600081905092915050565b600082825260208201905092915050565b60006109dd82610a6c565b91506109e883610a6c565b9250827fffffffffffffffffffffffffffffffffffffffffffffffffffffffffffffffff03821115610a1d57610a1c610a76565b5b828201905092915050565b6000610a3382610a4c565b9050919050565b6000610a4582610a4c565b9050919050565b600073ffffffffffffffffffffffffffffffffffffffff82169050919050565b6000819050919050565b7f4e487b7100000000000000000000000000000000000000000000000000000000600052601160045260246000fd5b7f4f776e61626c653a206e6577206f776e657220697320746865207a65726f206160008201527f6464726573730000000000000000000000000000000000000000000000000000602082015250565b7f416464726573733a20756e61626c6520746f2073656e642076616c75652c207260008201527f6563697069656e74206d61792068617665207265766572746564000000000000602082015250565b7f416464726573733a20696e73756666696369656e742062616c616e6365000000600082015250565b7f4f776e61626c653a2063616c6c6572206973206e6f7420746865206f776e6572600082015250565b50565b610ba181610a28565b8114610bac57600080fd5b50565b610bb881610a3a565b8114610bc357600080fd5b5056fea264697066735822122073b307195fd92b28f2600edbbb914776573abe0392628b3f8a5ee2d6ab956cfa64736f6c63430008010033",
  "linkReferences": {},
  "deployedLinkReferences": {}
}