{
	"_format": "hh-sol-artifact-1",
	"contractName": "NFT",
	"sourceName": "contracts/NFT.sol",
	"abi": [
		{
			"inputs": [],
			"stateMutability": "nonpayable",
			"type": "constructor"
		},
		{
			"anonymous": false,
			"inputs": [
				{
					"indexed": true,
					"internalType": "address",
					"name": "owner",
					"type": "address"
				},
				{
					"indexed": true,
					"internalType": "address",
					"name": "approved",
					"type": "address"
				},
				{
					"indexed": true,
					"internalType": "uint256",
					"name": "tokenId",
					"type": "uint256"
				}
			],
			"name": "Approval",
			"type": "event"
		},
		{
			"anonymous": false,
			"inputs": [
				{
					"indexed": true,
					"internalType": "address",
					"name": "owner",
					"type": "address"
				},
				{
					"indexed": true,
					"internalType": "address",
					"name": "operator",
					"type": "address"
				},
				{
					"indexed": false,
					"internalType": "bool",
					"name": "approved",
					"type": "bool"
				}
			],
			"name": "ApprovalForAll",
			"type": "event"
		},
		{
			"anonymous": false,
			"inputs": [
				{
					"indexed": true,
					"internalType": "address",
					"name": "previousOwner",
					"type": "address"
				},
				{
					"indexed": true,
					"internalType": "address",
					"name": "newOwner",
					"type": "address"
				}
			],
			"name": "OwnershipTransferred",
			"type": "event"
		},
		{
			"anonymous": false,
			"inputs": [
				{
					"indexed": true,
					"internalType": "address",
					"name": "from",
					"type": "address"
				},
				{
					"indexed": true,
					"internalType": "address",
					"name": "to",
					"type": "address"
				},
				{
					"indexed": true,
					"internalType": "uint256",
					"name": "tokenId",
					"type": "uint256"
				}
			],
			"name": "Transfer",
			"type": "event"
		},
		{
			"inputs": [],
			"name": "MINT_PRICE",
			"outputs": [
				{
					"internalType": "uint256",
					"name": "",
					"type": "uint256"
				}
			],
			"stateMutability": "view",
			"type": "function"
		},
		{
			"inputs": [],
			"name": "TOTAL_SUPPLY",
			"outputs": [
				{
					"internalType": "uint256",
					"name": "",
					"type": "uint256"
				}
			],
			"stateMutability": "view",
			"type": "function"
		},
		{
			"inputs": [
				{
					"internalType": "address",
					"name": "to",
					"type": "address"
				},
				{
					"internalType": "uint256",
					"name": "tokenId",
					"type": "uint256"
				}
			],
			"name": "approve",
			"outputs": [],
			"stateMutability": "nonpayable",
			"type": "function"
		},
		{
			"inputs": [
				{
					"internalType": "address",
					"name": "owner",
					"type": "address"
				}
			],
			"name": "balanceOf",
			"outputs": [
				{
					"internalType": "uint256",
					"name": "",
					"type": "uint256"
				}
			],
			"stateMutability": "view",
			"type": "function"
		},
		{
			"inputs": [],
			"name": "baseTokenURI",
			"outputs": [
				{
					"internalType": "string",
					"name": "",
					"type": "string"
				}
			],
			"stateMutability": "view",
			"type": "function"
		},
		{
			"inputs": [
				{
					"internalType": "uint256",
					"name": "tokenId",
					"type": "uint256"
				}
			],
			"name": "getApproved",
			"outputs": [
				{
					"internalType": "address",
					"name": "",
					"type": "address"
				}
			],
			"stateMutability": "view",
			"type": "function"
		},
		{
			"inputs": [
				{
					"internalType": "address",
					"name": "owner",
					"type": "address"
				},
				{
					"internalType": "address",
					"name": "operator",
					"type": "address"
				}
			],
			"name": "isApprovedForAll",
			"outputs": [
				{
					"internalType": "bool",
					"name": "",
					"type": "bool"
				}
			],
			"stateMutability": "view",
			"type": "function"
		},
		{
			"inputs": [
				{
					"internalType": "address",
					"name": "recipient",
					"type": "address"
				}
			],
			"name": "mintTo",
			"outputs": [
				{
					"internalType": "uint256",
					"name": "",
					"type": "uint256"
				}
			],
			"stateMutability": "payable",
			"type": "function"
		},
		{
			"inputs": [],
			"name": "name",
			"outputs": [
				{
					"internalType": "string",
					"name": "",
					"type": "string"
				}
			],
			"stateMutability": "view",
			"type": "function"
		},
		{
			"inputs": [],
			"name": "owner",
			"outputs": [
				{
					"internalType": "address",
					"name": "",
					"type": "address"
				}
			],
			"stateMutability": "view",
			"type": "function"
		},
		{
			"inputs": [
				{
					"internalType": "uint256",
					"name": "tokenId",
					"type": "uint256"
				}
			],
			"name": "ownerOf",
			"outputs": [
				{
					"internalType": "address",
					"name": "",
					"type": "address"
				}
			],
			"stateMutability": "view",
			"type": "function"
		},
		{
			"inputs": [
				{
					"internalType": "address",
					"name": "dest",
					"type": "address"
				}
			],
			"name": "payments",
			"outputs": [
				{
					"internalType": "uint256",
					"name": "",
					"type": "uint256"
				}
			],
			"stateMutability": "view",
			"type": "function"
		},
		{
			"inputs": [],
			"name": "renounceOwnership",
			"outputs": [],
			"stateMutability": "nonpayable",
			"type": "function"
		},
		{
			"inputs": [
				{
					"internalType": "address",
					"name": "from",
					"type": "address"
				},
				{
					"internalType": "address",
					"name": "to",
					"type": "address"
				},
				{
					"internalType": "uint256",
					"name": "tokenId",
					"type": "uint256"
				}
			],
			"name": "safeTransferFrom",
			"outputs": [],
			"stateMutability": "nonpayable",
			"type": "function"
		},
		{
			"inputs": [
				{
					"internalType": "address",
					"name": "from",
					"type": "address"
				},
				{
					"internalType": "address",
					"name": "to",
					"type": "address"
				},
				{
					"internalType": "uint256",
					"name": "tokenId",
					"type": "uint256"
				},
				{
					"internalType": "bytes",
					"name": "_data",
					"type": "bytes"
				}
			],
			"name": "safeTransferFrom",
			"outputs": [],
			"stateMutability": "nonpayable",
			"type": "function"
		},
		{
			"inputs": [
				{
					"internalType": "address",
					"name": "operator",
					"type": "address"
				},
				{
					"internalType": "bool",
					"name": "approved",
					"type": "bool"
				}
			],
			"name": "setApprovalForAll",
			"outputs": [],
			"stateMutability": "nonpayable",
			"type": "function"
		},
		{
			"inputs": [
				{
					"internalType": "string",
					"name": "_baseTokenURI",
					"type": "string"
				}
			],
			"name": "setBaseTokenURI",
			"outputs": [],
			"stateMutability": "nonpayable",
			"type": "function"
		},
		{
			"inputs": [
				{
					"internalType": "bytes4",
					"name": "interfaceId",
					"type": "bytes4"
				}
			],
			"name": "supportsInterface",
			"outputs": [
				{
					"internalType": "bool",
					"name": "",
					"type": "bool"
				}
			],
			"stateMutability": "view",
			"type": "function"
		},
		{
			"inputs": [],
			"name": "symbol",
			"outputs": [
				{
					"internalType": "string",
					"name": "",
					"type": "string"
				}
			],
			"stateMutability": "view",
			"type": "function"
		},
		{
			"inputs": [
				{
					"internalType": "uint256",
					"name": "tokenId",
					"type": "uint256"
				}
			],
			"name": "tokenURI",
			"outputs": [
				{
					"internalType": "string",
					"name": "",
					"type": "string"
				}
			],
			"stateMutability": "view",
			"type": "function"
		},
		{
			"inputs": [
				{
					"internalType": "address",
					"name": "from",
					"type": "address"
				},
				{
					"internalType": "address",
					"name": "to",
					"type": "address"
				},
				{
					"internalType": "uint256",
					"name": "tokenId",
					"type": "uint256"
				}
			],
			"name": "transferFrom",
			"outputs": [],
			"stateMutability": "nonpayable",
			"type": "function"
		},
		{
			"inputs": [
				{
					"internalType": "address",
					"name": "newOwner",
					"type": "address"
				}
			],
			"name": "transferOwnership",
			"outputs": [],
			"stateMutability": "nonpayable",
			"type": "function"
		},
		{
			"inputs": [
				{
					"internalType": "address payable",
					"name": "payee",
					"type": "address"
				}
			],
			"name": "withdrawPayments",
			"outputs": [],
			"stateMutability": "nonpayable",
			"type": "function"
		}
	],
	"bytecode": "0x60a06040523480156200001157600080fd5b506040518060400160405280600b81526020017f4e46545475746f7269616c0000000000000000000000000000000000000000008152506040518060400160405280600381526020017f4e4654000000000000000000000000000000000000000000000000000000000081525081600090805190602001906200009692919062000230565b508060019080519060200190620000af92919062000230565b505050604051620000c090620002c1565b604051809103906000f080158015620000dd573d6000803e3d6000fd5b5073ffffffffffffffffffffffffffffffffffffffff1660808173ffffffffffffffffffffffffffffffffffffffff1660601b8152505062000134620001286200016260201b60201c565b6200016a60201b60201c565b60405180602001604052806000815250600890805190602001906200015b92919062000230565b5062000353565b600033905090565b6000600660009054906101000a900473ffffffffffffffffffffffffffffffffffffffff16905081600660006101000a81548173ffffffffffffffffffffffffffffffffffffffff021916908373ffffffffffffffffffffffffffffffffffffffff1602179055508173ffffffffffffffffffffffffffffffffffffffff168173ffffffffffffffffffffffffffffffffffffffff167f8be0079c531659141344cd1fd0a4f28419497f9722a3daafe3b4186f6b6457e060405160405180910390a35050565b8280546200023e90620002ee565b90600052602060002090601f016020900481019282620002625760008555620002ae565b82601f106200027d57805160ff1916838001178555620002ae565b82800160010185558215620002ae579182015b82811115620002ad57825182559160200191906001019062000290565b5b509050620002bd9190620002cf565b5090565b610ccd806200372183390190565b5b80821115620002ea576000816000905550600101620002d0565b5090565b600060028204905060018216806200030757607f821691505b602082108114156200031e576200031d62000324565b5b50919050565b7f4e487b7100000000000000000000000000000000000000000000000000000000600052602260045260246000fd5b60805160601c6133a86200037960003960008181610f68015261167501526133a86000f3fe6080604052600436106101405760003560e01c8063755edd17116100b6578063c002d23d1161006f578063c002d23d1461044b578063c87b56dd14610476578063d547cfb7146104b3578063e2982c21146104de578063e985e9c51461051b578063f2fde38b1461055857610140565b8063755edd17146103485780638da5cb5b14610378578063902d55a5146103a357806395d89b41146103ce578063a22cb465146103f9578063b88d4fde1461042257610140565b806330176e131161010857806330176e131461023c57806331b3eb941461026557806342842e0e1461028e5780636352211e146102b757806370a08231146102f4578063715018a61461033157610140565b806301ffc9a71461014557806306fdde0314610182578063081812fc146101ad578063095ea7b3146101ea57806323b872dd14610213575b600080fd5b34801561015157600080fd5b5061016c600480360381019061016791906123bf565b610581565b6040516101799190612c97565b60405180910390f35b34801561018e57600080fd5b50610197610663565b6040516101a49190612cb2565b60405180910390f35b3480156101b957600080fd5b506101d460048036038101906101cf9190612452565b6106f5565b6040516101e19190612c15565b60405180910390f35b3480156101f657600080fd5b50610211600480360381019061020c9190612383565b61077a565b005b34801561021f57600080fd5b5061023a6004803603810190610235919061227d565b610892565b005b34801561024857600080fd5b50610263600480360381019061025e9190612411565b6108f2565b005b34801561027157600080fd5b5061028c60048036038101906102879190612218565b610988565b005b34801561029a57600080fd5b506102b560048036038101906102b0919061227d565b610a10565b005b3480156102c357600080fd5b506102de60048036038101906102d99190612452565b610a30565b6040516102eb9190612c15565b60405180910390f35b34801561030057600080fd5b5061031b600480360381019061031691906121ef565b610ae2565b6040516103289190612f14565b60405180910390f35b34801561033d57600080fd5b50610346610b9a565b005b610362600480360381019061035d91906121ef565b610c22565b60405161036f9190612f14565b60405180910390f35b34801561038457600080fd5b5061038d610cea565b60405161039a9190612c15565b60405180910390f35b3480156103af57600080fd5b506103b8610d14565b6040516103c59190612f14565b60405180910390f35b3480156103da57600080fd5b506103e3610d1a565b6040516103f09190612cb2565b60405180910390f35b34801561040557600080fd5b50610420600480360381019061041b9190612347565b610dac565b005b34801561042e57600080fd5b50610449600480360381019061044491906122cc565b610dc2565b005b34801561045757600080fd5b50610460610e24565b60405161046d9190612f14565b60405180910390f35b34801561048257600080fd5b5061049d60048036038101906104989190612452565b610e2f565b6040516104aa9190612cb2565b60405180910390f35b3480156104bf57600080fd5b506104c8610ed6565b6040516104d59190612cb2565b60405180910390f35b3480156104ea57600080fd5b50610505600480360381019061050091906121ef565b610f64565b6040516105129190612f14565b60405180910390f35b34801561052757600080fd5b50610542600480360381019061053d9190612241565b611016565b60405161054f9190612c97565b60405180910390f35b34801561056457600080fd5b5061057f600480360381019061057a91906121ef565b6110aa565b005b60007f80ac58cd000000000000000000000000000000000000000000000000000000007bffffffffffffffffffffffffffffffffffffffffffffffffffffffff1916827bffffffffffffffffffffffffffffffffffffffffffffffffffffffff1916148061064c57507f5b5e139f000000000000000000000000000000000000000000000000000000007bffffffffffffffffffffffffffffffffffffffffffffffffffffffff1916827bffffffffffffffffffffffffffffffffffffffffffffffffffffffff1916145b8061065c575061065b826111a2565b5b9050919050565b60606000805461067290613186565b80601f016020809104026020016040519081016040528092919081815260200182805461069e90613186565b80156106eb5780601f106106c0576101008083540402835291602001916106eb565b820191906000526020600020905b8154815290600101906020018083116106ce57829003601f168201915b5050505050905090565b60006107008261120c565b61073f576040517f08c379a000000000000000000000000000000000000000000000000000000000815260040161073690612e34565b60405180910390fd5b6004600083815260200190815260200160002060009054906101000a900473ffffffffffffffffffffffffffffffffffffffff169050919050565b600061078582610a30565b90508073ffffffffffffffffffffffffffffffffffffffff168373ffffffffffffffffffffffffffffffffffffffff1614156107f6576040517f08c379a00000000000000000000000000000000000000000000000000000000081526004016107ed90612eb4565b60405180910390fd5b8073ffffffffffffffffffffffffffffffffffffffff16610815611278565b73ffffffffffffffffffffffffffffffffffffffff16148061084457506108438161083e611278565b611016565b5b610883576040517f08c379a000000000000000000000000000000000000000000000000000000000815260040161087a90612db4565b60405180910390fd5b61088d8383611280565b505050565b6108a361089d611278565b82611339565b6108e2576040517f08c379a00000000000000000000000000000000000000000000000000000000081526004016108d990612ed4565b60405180910390fd5b6108ed838383611417565b505050565b6108fa611278565b73ffffffffffffffffffffffffffffffffffffffff16610918610cea565b73ffffffffffffffffffffffffffffffffffffffff161461096e576040517f08c379a000000000000000000000000000000000000000000000000000000000815260040161096590612e54565b60405180910390fd5b8060089080519060200190610984929190611fe9565b5050565b610990611278565b73ffffffffffffffffffffffffffffffffffffffff166109ae610cea565b73ffffffffffffffffffffffffffffffffffffffff1614610a04576040517f08c379a00000000000000000000000000000000000000000000000000000000081526004016109fb90612e54565b60405180910390fd5b610a0d81611673565b50565b610a2b83838360405180602001604052806000815250610dc2565b505050565b6000806002600084815260200190815260200160002060009054906101000a900473ffffffffffffffffffffffffffffffffffffffff169050600073ffffffffffffffffffffffffffffffffffffffff168173ffffffffffffffffffffffffffffffffffffffff161415610ad9576040517f08c379a0000000000000000000000000000000000000000000000000000000008152600401610ad090612df4565b60405180910390fd5b80915050919050565b60008073ffffffffffffffffffffffffffffffffffffffff168273ffffffffffffffffffffffffffffffffffffffff161415610b53576040517f08c379a0000000000000000000000000000000000000000000000000000000008152600401610b4a90612dd4565b60405180910390fd5b600360008373ffffffffffffffffffffffffffffffffffffffff1673ffffffffffffffffffffffffffffffffffffffff168152602001908152602001600020549050919050565b610ba2611278565b73ffffffffffffffffffffffffffffffffffffffff16610bc0610cea565b73ffffffffffffffffffffffffffffffffffffffff1614610c16576040517f08c379a0000000000000000000000000000000000000000000000000000000008152600401610c0d90612e54565b60405180910390fd5b610c206000611701565b565b600080610c2f60076117c7565b90506127108110610c75576040517f08c379a0000000000000000000000000000000000000000000000000000000008152600401610c6c90612ef4565b60405180910390fd5b66038d7ea4c680003414610cbe576040517f08c379a0000000000000000000000000000000000000000000000000000000008152600401610cb590612d74565b60405180910390fd5b610cc860076117d5565b6000610cd460076117c7565b9050610ce084826117eb565b8092505050919050565b6000600660009054906101000a900473ffffffffffffffffffffffffffffffffffffffff16905090565b61271081565b606060018054610d2990613186565b80601f0160208091040260200160405190810160405280929190818152602001828054610d5590613186565b8015610da25780601f10610d7757610100808354040283529160200191610da2565b820191906000526020600020905b815481529060010190602001808311610d8557829003601f168201915b5050505050905090565b610dbe610db7611278565b8383611809565b5050565b610dd3610dcd611278565b83611339565b610e12576040517f08c379a0000000000000000000000000000000000000000000000000000000008152600401610e0990612ed4565b60405180910390fd5b610e1e84848484611976565b50505050565b66038d7ea4c6800081565b6060610e3a8261120c565b610e79576040517f08c379a0000000000000000000000000000000000000000000000000000000008152600401610e7090612e94565b60405180910390fd5b6000610e836119d2565b90506000815111610ea35760405180602001604052806000815250610ece565b80610ead84611a64565b604051602001610ebe929190612bf1565b6040516020818303038152906040525b915050919050565b60088054610ee390613186565b80601f0160208091040260200160405190810160405280929190818152602001828054610f0f90613186565b8015610f5c5780601f10610f3157610100808354040283529160200191610f5c565b820191906000526020600020905b815481529060010190602001808311610f3f57829003601f168201915b505050505081565b60007f000000000000000000000000000000000000000000000000000000000000000073ffffffffffffffffffffffffffffffffffffffff1663e3a9db1a836040518263ffffffff1660e01b8152600401610fbf9190612c15565b60206040518083038186803b158015610fd757600080fd5b505afa158015610feb573d6000803e3d6000fd5b505050506040513d601f19601f8201168201806040525081019061100f919061247b565b9050919050565b6000600560008473ffffffffffffffffffffffffffffffffffffffff1673ffffffffffffffffffffffffffffffffffffffff16815260200190815260200160002060008373ffffffffffffffffffffffffffffffffffffffff1673ffffffffffffffffffffffffffffffffffffffff16815260200190815260200160002060009054906101000a900460ff16905092915050565b6110b2611278565b73ffffffffffffffffffffffffffffffffffffffff166110d0610cea565b73ffffffffffffffffffffffffffffffffffffffff1614611126576040517f08c379a000000000000000000000000000000000000000000000000000000000815260040161111d90612e54565b60405180910390fd5b600073ffffffffffffffffffffffffffffffffffffffff168173ffffffffffffffffffffffffffffffffffffffff161415611196576040517f08c379a000000000000000000000000000000000000000000000000000000000815260040161118d90612cf4565b60405180910390fd5b61119f81611701565b50565b60007f01ffc9a7000000000000000000000000000000000000000000000000000000007bffffffffffffffffffffffffffffffffffffffffffffffffffffffff1916827bffffffffffffffffffffffffffffffffffffffffffffffffffffffff1916149050919050565b60008073ffffffffffffffffffffffffffffffffffffffff166002600084815260200190815260200160002060009054906101000a900473ffffffffffffffffffffffffffffffffffffffff1673ffffffffffffffffffffffffffffffffffffffff1614159050919050565b600033905090565b816004600083815260200190815260200160002060006101000a81548173ffffffffffffffffffffffffffffffffffffffff021916908373ffffffffffffffffffffffffffffffffffffffff160217905550808273ffffffffffffffffffffffffffffffffffffffff166112f383610a30565b73ffffffffffffffffffffffffffffffffffffffff167f8c5be1e5ebec7d5bd14f71427d1e84f3dd0314c0f7b2291e5b200ac8c7c3b92560405160405180910390a45050565b60006113448261120c565b611383576040517f08c379a000000000000000000000000000000000000000000000000000000000815260040161137a90612d94565b60405180910390fd5b600061138e83610a30565b90508073ffffffffffffffffffffffffffffffffffffffff168473ffffffffffffffffffffffffffffffffffffffff1614806113fd57508373ffffffffffffffffffffffffffffffffffffffff166113e5846106f5565b73ffffffffffffffffffffffffffffffffffffffff16145b8061140e575061140d8185611016565b5b91505092915050565b8273ffffffffffffffffffffffffffffffffffffffff1661143782610a30565b73ffffffffffffffffffffffffffffffffffffffff161461148d576040517f08c379a000000000000000000000000000000000000000000000000000000000815260040161148490612e74565b60405180910390fd5b600073ffffffffffffffffffffffffffffffffffffffff168273ffffffffffffffffffffffffffffffffffffffff1614156114fd576040517f08c379a00000000000000000000000000000000000000000000000000000000081526004016114f490612d34565b60405180910390fd5b611508838383611c11565b611513600082611280565b6001600360008573ffffffffffffffffffffffffffffffffffffffff1673ffffffffffffffffffffffffffffffffffffffff1681526020019081526020016000206000828254611563919061308a565b925050819055506001600360008473ffffffffffffffffffffffffffffffffffffffff1673ffffffffffffffffffffffffffffffffffffffff16815260200190815260200160002060008282546115ba9190613003565b92505081905550816002600083815260200190815260200160002060006101000a81548173ffffffffffffffffffffffffffffffffffffffff021916908373ffffffffffffffffffffffffffffffffffffffff160217905550808273ffffffffffffffffffffffffffffffffffffffff168473ffffffffffffffffffffffffffffffffffffffff167fddf252ad1be2c89b69c2b068fc378daa952ba7f163c4a11628f55a4df523b3ef60405160405180910390a4505050565b7f000000000000000000000000000000000000000000000000000000000000000073ffffffffffffffffffffffffffffffffffffffff166351cff8d9826040518263ffffffff1660e01b81526004016116cc9190612c30565b600060405180830381600087803b1580156116e657600080fd5b505af11580156116fa573d6000803e3d6000fd5b5050505050565b6000600660009054906101000a900473ffffffffffffffffffffffffffffffffffffffff16905081600660006101000a81548173ffffffffffffffffffffffffffffffffffffffff021916908373ffffffffffffffffffffffffffffffffffffffff1602179055508173ffffffffffffffffffffffffffffffffffffffff168173ffffffffffffffffffffffffffffffffffffffff167f8be0079c531659141344cd1fd0a4f28419497f9722a3daafe3b4186f6b6457e060405160405180910390a35050565b600081600001549050919050565b6001816000016000828254019250508190555050565b611805828260405180602001604052806000815250611c16565b5050565b8173ffffffffffffffffffffffffffffffffffffffff168373ffffffffffffffffffffffffffffffffffffffff161415611878576040517f08c379a000000000000000000000000000000000000000000000000000000000815260040161186f90612d54565b60405180910390fd5b80600560008573ffffffffffffffffffffffffffffffffffffffff1673ffffffffffffffffffffffffffffffffffffffff16815260200190815260200160002060008473ffffffffffffffffffffffffffffffffffffffff1673ffffffffffffffffffffffffffffffffffffffff16815260200190815260200160002060006101000a81548160ff0219169083151502179055508173ffffffffffffffffffffffffffffffffffffffff168373ffffffffffffffffffffffffffffffffffffffff167f17307eab39ab6107e8899845ad3d59bd9653f200f220920489ca2b5937696c31836040516119699190612c97565b60405180910390a3505050565b611981848484611417565b61198d84848484611c71565b6119cc576040517f08c379a00000000000000000000000000000000000000000000000000000000081526004016119c390612cd4565b60405180910390fd5b50505050565b6060600880546119e190613186565b80601f0160208091040260200160405190810160405280929190818152602001828054611a0d90613186565b8015611a5a5780601f10611a2f57610100808354040283529160200191611a5a565b820191906000526020600020905b815481529060010190602001808311611a3d57829003601f168201915b5050505050905090565b60606000821415611aac576040518060400160405280600181526020017f30000000000000000000000000000000000000000000000000000000000000008152509050611c0c565b600082905060005b60008214611ade578080611ac7906131b8565b915050600a82611ad79190613059565b9150611ab4565b60008167ffffffffffffffff811115611b20577f4e487b7100000000000000000000000000000000000000000000000000000000600052604160045260246000fd5b6040519080825280601f01601f191660200182016040528015611b525781602001600182028036833780820191505090505b5090505b60008514611c0557600182611b6b919061308a565b9150600a85611b7a9190613201565b6030611b869190613003565b60f81b818381518110611bc2577f4e487b7100000000000000000000000000000000000000000000000000000000600052603260045260246000fd5b60200101907effffffffffffffffffffffffffffffffffffffffffffffffffffffffffffff1916908160001a905350600a85611bfe9190613059565b9450611b56565b8093505050505b919050565b505050565b611c208383611e08565b611c2d6000848484611c71565b611c6c576040517f08c379a0000000000000000000000000000000000000000000000000000000008152600401611c6390612cd4565b60405180910390fd5b505050565b6000611c928473ffffffffffffffffffffffffffffffffffffffff16611fd6565b15611dfb578373ffffffffffffffffffffffffffffffffffffffff1663150b7a02611cbb611278565b8786866040518563ffffffff1660e01b8152600401611cdd9493929190612c4b565b602060405180830381600087803b158015611cf757600080fd5b505af1925050508015611d2857506040513d601f19601f82011682018060405250810190611d2591906123e8565b60015b611dab573d8060008114611d58576040519150601f19603f3d011682016040523d82523d6000602084013e611d5d565b606091505b50600081511415611da3576040517f08c379a0000000000000000000000000000000000000000000000000000000008152600401611d9a90612cd4565b60405180910390fd5b805181602001fd5b63150b7a0260e01b7bffffffffffffffffffffffffffffffffffffffffffffffffffffffff1916817bffffffffffffffffffffffffffffffffffffffffffffffffffffffff191614915050611e00565b600190505b949350505050565b600073ffffffffffffffffffffffffffffffffffffffff168273ffffffffffffffffffffffffffffffffffffffff161415611e78576040517f08c379a0000000000000000000000000000000000000000000000000000000008152600401611e6f90612e14565b60405180910390fd5b611e818161120c565b15611ec1576040517f08c379a0000000000000000000000000000000000000000000000000000000008152600401611eb890612d14565b60405180910390fd5b611ecd60008383611c11565b6001600360008473ffffffffffffffffffffffffffffffffffffffff1673ffffffffffffffffffffffffffffffffffffffff1681526020019081526020016000206000828254611f1d9190613003565b92505081905550816002600083815260200190815260200160002060006101000a81548173ffffffffffffffffffffffffffffffffffffffff021916908373ffffffffffffffffffffffffffffffffffffffff160217905550808273ffffffffffffffffffffffffffffffffffffffff16600073ffffffffffffffffffffffffffffffffffffffff167fddf252ad1be2c89b69c2b068fc378daa952ba7f163c4a11628f55a4df523b3ef60405160405180910390a45050565b600080823b905060008111915050919050565b828054611ff590613186565b90600052602060002090601f016020900481019282612017576000855561205e565b82601f1061203057805160ff191683800117855561205e565b8280016001018555821561205e579182015b8281111561205d578251825591602001919060010190612042565b5b50905061206b919061206f565b5090565b5b80821115612088576000816000905550600101612070565b5090565b600061209f61209a84612f60565b612f2f565b9050828152602081018484840111156120b757600080fd5b6120c2848285613144565b509392505050565b60006120dd6120d884612f90565b612f2f565b9050828152602081018484840111156120f557600080fd5b612100848285613144565b509392505050565b600081359050612117816132ff565b92915050565b60008135905061212c81613316565b92915050565b6000813590506121418161332d565b92915050565b60008135905061215681613344565b92915050565b60008151905061216b81613344565b92915050565b600082601f83011261218257600080fd5b813561219284826020860161208c565b91505092915050565b600082601f8301126121ac57600080fd5b81356121bc8482602086016120ca565b91505092915050565b6000813590506121d48161335b565b92915050565b6000815190506121e98161335b565b92915050565b60006020828403121561220157600080fd5b600061220f84828501612108565b91505092915050565b60006020828403121561222a57600080fd5b60006122388482850161211d565b91505092915050565b6000806040838503121561225457600080fd5b600061226285828601612108565b925050602061227385828601612108565b9150509250929050565b60008060006060848603121561229257600080fd5b60006122a086828701612108565b93505060206122b186828701612108565b92505060406122c2868287016121c5565b9150509250925092565b600080600080608085870312156122e257600080fd5b60006122f087828801612108565b945050602061230187828801612108565b9350506040612312878288016121c5565b925050606085013567ffffffffffffffff81111561232f57600080fd5b61233b87828801612171565b91505092959194509250565b6000806040838503121561235a57600080fd5b600061236885828601612108565b925050602061237985828601612132565b9150509250929050565b6000806040838503121561239657600080fd5b60006123a485828601612108565b92505060206123b5858286016121c5565b9150509250929050565b6000602082840312156123d157600080fd5b60006123df84828501612147565b91505092915050565b6000602082840312156123fa57600080fd5b60006124088482850161215c565b91505092915050565b60006020828403121561242357600080fd5b600082013567ffffffffffffffff81111561243d57600080fd5b6124498482850161219b565b91505092915050565b60006020828403121561246457600080fd5b6000612472848285016121c5565b91505092915050565b60006020828403121561248d57600080fd5b600061249b848285016121da565b91505092915050565b6124ad816130d0565b82525050565b6124bc816130be565b82525050565b6124cb816130e2565b82525050565b60006124dc82612fc0565b6124e68185612fd6565b93506124f6818560208601613153565b6124ff816132ee565b840191505092915050565b600061251582612fcb565b61251f8185612fe7565b935061252f818560208601613153565b612538816132ee565b840191505092915050565b600061254e82612fcb565b6125588185612ff8565b9350612568818560208601613153565b80840191505092915050565b6000612581603283612fe7565b91507f4552433732313a207472616e7366657220746f206e6f6e20455243373231526560008301527f63656976657220696d706c656d656e74657200000000000000000000000000006020830152604082019050919050565b60006125e7602683612fe7565b91507f4f776e61626c653a206e6577206f776e657220697320746865207a65726f206160008301527f64647265737300000000000000000000000000000000000000000000000000006020830152604082019050919050565b600061264d601c83612fe7565b91507f4552433732313a20746f6b656e20616c7265616479206d696e746564000000006000830152602082019050919050565b600061268d602483612fe7565b91507f4552433732313a207472616e7366657220746f20746865207a65726f2061646460008301527f72657373000000000000000000000000000000000000000000000000000000006020830152604082019050919050565b60006126f3601983612fe7565b91507f4552433732313a20617070726f766520746f2063616c6c6572000000000000006000830152602082019050919050565b6000612733602e83612fe7565b91507f5472616e73616374696f6e2076616c756520646964206e6f7420657175616c2060008301527f746865206d696e742070726963650000000000000000000000000000000000006020830152604082019050919050565b6000612799602c83612fe7565b91507f4552433732313a206f70657261746f7220717565727920666f72206e6f6e657860008301527f697374656e7420746f6b656e00000000000000000000000000000000000000006020830152604082019050919050565b60006127ff603883612fe7565b91507f4552433732313a20617070726f76652063616c6c6572206973206e6f74206f7760008301527f6e6572206e6f7220617070726f76656420666f7220616c6c00000000000000006020830152604082019050919050565b6000612865602a83612fe7565b91507f4552433732313a2062616c616e636520717565727920666f7220746865207a6560008301527f726f2061646472657373000000000000000000000000000000000000000000006020830152604082019050919050565b60006128cb602983612fe7565b91507f4552433732313a206f776e657220717565727920666f72206e6f6e657869737460008301527f656e7420746f6b656e00000000000000000000000000000000000000000000006020830152604082019050919050565b6000612931602083612fe7565b91507f4552433732313a206d696e7420746f20746865207a65726f20616464726573736000830152602082019050919050565b6000612971602c83612fe7565b91507f4552433732313a20617070726f76656420717565727920666f72206e6f6e657860008301527f697374656e7420746f6b656e00000000000000000000000000000000000000006020830152604082019050919050565b60006129d7602083612fe7565b91507f4f776e61626c653a2063616c6c6572206973206e6f7420746865206f776e65726000830152602082019050919050565b6000612a17602983612fe7565b91507f4552433732313a207472616e73666572206f6620746f6b656e2074686174206960008301527f73206e6f74206f776e00000000000000000000000000000000000000000000006020830152604082019050919050565b6000612a7d602f83612fe7565b91507f4552433732314d657461646174613a2055524920717565727920666f72206e6f60008301527f6e6578697374656e7420746f6b656e00000000000000000000000000000000006020830152604082019050919050565b6000612ae3602183612fe7565b91507f4552433732313a20617070726f76616c20746f2063757272656e74206f776e6560008301527f72000000000000000000000000000000000000000000000000000000000000006020830152604082019050919050565b6000612b49603183612fe7565b91507f4552433732313a207472616e736665722063616c6c6572206973206e6f74206f60008301527f776e6572206e6f7220617070726f7665640000000000000000000000000000006020830152604082019050919050565b6000612baf601283612fe7565b91507f4d617820737570706c79207265616368656400000000000000000000000000006000830152602082019050919050565b612beb8161313a565b82525050565b6000612bfd8285612543565b9150612c098284612543565b91508190509392505050565b6000602082019050612c2a60008301846124b3565b92915050565b6000602082019050612c4560008301846124a4565b92915050565b6000608082019050612c6060008301876124b3565b612c6d60208301866124b3565b612c7a6040830185612be2565b8181036060830152612c8c81846124d1565b905095945050505050565b6000602082019050612cac60008301846124c2565b92915050565b60006020820190508181036000830152612ccc818461250a565b905092915050565b60006020820190508181036000830152612ced81612574565b9050919050565b60006020820190508181036000830152612d0d816125da565b9050919050565b60006020820190508181036000830152612d2d81612640565b9050919050565b60006020820190508181036000830152612d4d81612680565b9050919050565b60006020820190508181036000830152612d6d816126e6565b9050919050565b60006020820190508181036000830152612d8d81612726565b9050919050565b60006020820190508181036000830152612dad8161278c565b9050919050565b60006020820190508181036000830152612dcd816127f2565b9050919050565b60006020820190508181036000830152612ded81612858565b9050919050565b60006020820190508181036000830152612e0d816128be565b9050919050565b60006020820190508181036000830152612e2d81612924565b9050919050565b60006020820190508181036000830152612e4d81612964565b9050919050565b60006020820190508181036000830152612e6d816129ca565b9050919050565b60006020820190508181036000830152612e8d81612a0a565b9050919050565b60006020820190508181036000830152612ead81612a70565b9050919050565b60006020820190508181036000830152612ecd81612ad6565b9050919050565b60006020820190508181036000830152612eed81612b3c565b9050919050565b60006020820190508181036000830152612f0d81612ba2565b9050919050565b6000602082019050612f296000830184612be2565b92915050565b6000604051905081810181811067ffffffffffffffff82111715612f5657612f556132bf565b5b8060405250919050565b600067ffffffffffffffff821115612f7b57612f7a6132bf565b5b601f19601f8301169050602081019050919050565b600067ffffffffffffffff821115612fab57612faa6132bf565b5b601f19601f8301169050602081019050919050565b600081519050919050565b600081519050919050565b600082825260208201905092915050565b600082825260208201905092915050565b600081905092915050565b600061300e8261313a565b91506130198361313a565b9250827fffffffffffffffffffffffffffffffffffffffffffffffffffffffffffffffff0382111561304e5761304d613232565b5b828201905092915050565b60006130648261313a565b915061306f8361313a565b92508261307f5761307e613261565b5b828204905092915050565b60006130958261313a565b91506130a08361313a565b9250828210156130b3576130b2613232565b5b828203905092915050565b60006130c98261311a565b9050919050565b60006130db8261311a565b9050919050565b60008115159050919050565b60007fffffffff0000000000000000000000000000000000000000000000000000000082169050919050565b600073ffffffffffffffffffffffffffffffffffffffff82169050919050565b6000819050919050565b82818337600083830152505050565b60005b83811015613171578082015181840152602081019050613156565b83811115613180576000848401525b50505050565b6000600282049050600182168061319e57607f821691505b602082108114156131b2576131b1613290565b5b50919050565b60006131c38261313a565b91507fffffffffffffffffffffffffffffffffffffffffffffffffffffffffffffffff8214156131f6576131f5613232565b5b600182019050919050565b600061320c8261313a565b91506132178361313a565b92508261322757613226613261565b5b828206905092915050565b7f4e487b7100000000000000000000000000000000000000000000000000000000600052601160045260246000fd5b7f4e487b7100000000000000000000000000000000000000000000000000000000600052601260045260246000fd5b7f4e487b7100000000000000000000000000000000000000000000000000000000600052602260045260246000fd5b7f4e487b7100000000000000000000000000000000000000000000000000000000600052604160045260246000fd5b6000601f19601f8301169050919050565b613308816130be565b811461331357600080fd5b50565b61331f816130d0565b811461332a57600080fd5b50565b613336816130e2565b811461334157600080fd5b50565b61334d816130ee565b811461335857600080fd5b50565b6133648161313a565b811461336f57600080fd5b5056fea2646970667358221220f5436c079d23bd0374f29d9556a92e98fba939d5b6838a4e4ef45d23f6aebd9964736f6c63430008000033608060405234801561001057600080fd5b5061002d61002261003260201b60201c565b61003a60201b60201c565b6100fe565b600033905090565b60008060009054906101000a900473ffffffffffffffffffffffffffffffffffffffff169050816000806101000a81548173ffffffffffffffffffffffffffffffffffffffff021916908373ffffffffffffffffffffffffffffffffffffffff1602179055508173ffffffffffffffffffffffffffffffffffffffff168173ffffffffffffffffffffffffffffffffffffffff167f8be0079c531659141344cd1fd0a4f28419497f9722a3daafe3b4186f6b6457e060405160405180910390a35050565b610bc08061010d6000396000f3fe6080604052600436106100555760003560e01c806351cff8d91461005a578063715018a6146100835780638da5cb5b1461009a578063e3a9db1a146100c5578063f2fde38b14610102578063f340fa011461012b575b600080fd5b34801561006657600080fd5b50610081600480360381019061007c91906107f5565b610147565b005b34801561008f57600080fd5b506100986102c7565b005b3480156100a657600080fd5b506100af61034f565b6040516100bc91906109b7565b60405180910390f35b3480156100d157600080fd5b506100ec60048036038101906100e791906107cc565b610378565b6040516100f99190610a52565b60405180910390f35b34801561010e57600080fd5b50610129600480360381019061012491906107cc565b6103c1565b005b610145600480360381019061014091906107cc565b6104b9565b005b61014f6105e2565b73ffffffffffffffffffffffffffffffffffffffff1661016d61034f565b73ffffffffffffffffffffffffffffffffffffffff16146101c3576040517f08c379a00000000000000000000000000000000000000000000000000000000081526004016101ba90610a32565b60405180910390fd5b6000600160008373ffffffffffffffffffffffffffffffffffffffff1673ffffffffffffffffffffffffffffffffffffffff1681526020019081526020016000205490506000600160008473ffffffffffffffffffffffffffffffffffffffff1673ffffffffffffffffffffffffffffffffffffffff16815260200190815260200160002081905550610275818373ffffffffffffffffffffffffffffffffffffffff166105ea90919063ffffffff16565b8173ffffffffffffffffffffffffffffffffffffffff167f7084f5476618d8e60b11ef0d7d3f06914655adb8793e28ff7f018d4c76d505d5826040516102bb9190610a52565b60405180910390a25050565b6102cf6105e2565b73ffffffffffffffffffffffffffffffffffffffff166102ed61034f565b73ffffffffffffffffffffffffffffffffffffffff1614610343576040517f08c379a000000000000000000000000000000000000000000000000000000000815260040161033a90610a32565b60405180910390fd5b61034d60006106de565b565b60008060009054906101000a900473ffffffffffffffffffffffffffffffffffffffff16905090565b6000600160008373ffffffffffffffffffffffffffffffffffffffff1673ffffffffffffffffffffffffffffffffffffffff168152602001908152602001600020549050919050565b6103c96105e2565b73ffffffffffffffffffffffffffffffffffffffff166103e761034f565b73ffffffffffffffffffffffffffffffffffffffff161461043d576040517f08c379a000000000000000000000000000000000000000000000000000000000815260040161043490610a32565b60405180910390fd5b600073ffffffffffffffffffffffffffffffffffffffff168173ffffffffffffffffffffffffffffffffffffffff1614156104ad576040517f08c379a00000000000000000000000000000000000000000000000000000000081526004016104a4906109d2565b60405180910390fd5b6104b6816106de565b50565b6104c16105e2565b73ffffffffffffffffffffffffffffffffffffffff166104df61034f565b73ffffffffffffffffffffffffffffffffffffffff1614610535576040517f08c379a000000000000000000000000000000000000000000000000000000000815260040161052c90610a32565b60405180910390fd5b600034905080600160008473ffffffffffffffffffffffffffffffffffffffff1673ffffffffffffffffffffffffffffffffffffffff16815260200190815260200160002060008282546105899190610a89565b925050819055508173ffffffffffffffffffffffffffffffffffffffff167f2da466a7b24304f47e87fa2e1e5a81b9831ce54fec19055ce277ca2f39ba42c4826040516105d69190610a52565b60405180910390a25050565b600033905090565b8047101561062d576040517f08c379a000000000000000000000000000000000000000000000000000000000815260040161062490610a12565b60405180910390fd5b60008273ffffffffffffffffffffffffffffffffffffffff1682604051610653906109a2565b60006040518083038185875af1925050503d8060008114610690576040519150601f19603f3d011682016040523d82523d6000602084013e610695565b606091505b50509050806106d9576040517f08c379a00000000000000000000000000000000000000000000000000000000081526004016106d0906109f2565b60405180910390fd5b505050565b60008060009054906101000a900473ffffffffffffffffffffffffffffffffffffffff169050816000806101000a81548173ffffffffffffffffffffffffffffffffffffffff021916908373ffffffffffffffffffffffffffffffffffffffff1602179055508173ffffffffffffffffffffffffffffffffffffffff168173ffffffffffffffffffffffffffffffffffffffff167f8be0079c531659141344cd1fd0a4f28419497f9722a3daafe3b4186f6b6457e060405160405180910390a35050565b6000813590506107b181610b5c565b92915050565b6000813590506107c681610b73565b92915050565b6000602082840312156107de57600080fd5b60006107ec848285016107a2565b91505092915050565b60006020828403121561080757600080fd5b6000610815848285016107b7565b91505092915050565b61082781610adf565b82525050565b600061083a602683610a78565b91507f4f776e61626c653a206e6577206f776e657220697320746865207a65726f206160008301527f64647265737300000000000000000000000000000000000000000000000000006020830152604082019050919050565b60006108a0603a83610a78565b91507f416464726573733a20756e61626c6520746f2073656e642076616c75652c207260008301527f6563697069656e74206d617920686176652072657665727465640000000000006020830152604082019050919050565b6000610906601d83610a78565b91507f416464726573733a20696e73756666696369656e742062616c616e63650000006000830152602082019050919050565b6000610946602083610a78565b91507f4f776e61626c653a2063616c6c6572206973206e6f7420746865206f776e65726000830152602082019050919050565b6000610986600083610a6d565b9150600082019050919050565b61099c81610b23565b82525050565b60006109ad82610979565b9150819050919050565b60006020820190506109cc600083018461081e565b92915050565b600060208201905081810360008301526109eb8161082d565b9050919050565b60006020820190508181036000830152610a0b81610893565b9050919050565b60006020820190508181036000830152610a2b816108f9565b9050919050565b60006020820190508181036000830152610a4b81610939565b9050919050565b6000602082019050610a676000830184610993565b92915050565b600081905092915050565b600082825260208201905092915050565b6000610a9482610b23565b9150610a9f83610b23565b9250827fffffffffffffffffffffffffffffffffffffffffffffffffffffffffffffffff03821115610ad457610ad3610b2d565b5b828201905092915050565b6000610aea82610b03565b9050919050565b6000610afc82610b03565b9050919050565b600073ffffffffffffffffffffffffffffffffffffffff82169050919050565b6000819050919050565b7f4e487b7100000000000000000000000000000000000000000000000000000000600052601160045260246000fd5b610b6581610adf565b8114610b7057600080fd5b50565b610b7c81610af1565b8114610b8757600080fd5b5056fea26469706673582212204e8ab707adc9ee645b828ddc4f791bd246fea3a80e8eeba1ce50ca1d3c28c2cb64736f6c63430008000033",
	"linkReferences": {},
	"deployedLinkReferences": {}
}